{
  "address": "0xE076341997771AB62fe184d1101BCd78d18053e2",
  "abi": [
    {
      "inputs": [
        {
          "internalType": "contract USDC",
          "name": "_usdcToken",
          "type": "address"
        },
        {
          "internalType": "string",
          "name": "_uri",
          "type": "string"
        }
      ],
      "stateMutability": "nonpayable",
      "type": "constructor"
    },
    {
      "anonymous": false,
      "inputs": [
        {
          "indexed": true,
          "internalType": "address",
          "name": "account",
          "type": "address"
        },
        {
          "indexed": true,
          "internalType": "address",
          "name": "operator",
          "type": "address"
        },
        {
          "indexed": false,
          "internalType": "bool",
          "name": "approved",
          "type": "bool"
        }
      ],
      "name": "ApprovalForAll",
      "type": "event"
    },
    {
      "anonymous": false,
      "inputs": [
        {
          "indexed": true,
          "internalType": "address",
          "name": "operator",
          "type": "address"
        },
        {
          "indexed": true,
          "internalType": "address",
          "name": "from",
          "type": "address"
        },
        {
          "indexed": true,
          "internalType": "address",
          "name": "to",
          "type": "address"
        },
        {
          "indexed": false,
          "internalType": "uint256[]",
          "name": "ids",
          "type": "uint256[]"
        },
        {
          "indexed": false,
          "internalType": "uint256[]",
          "name": "values",
          "type": "uint256[]"
        }
      ],
      "name": "TransferBatch",
      "type": "event"
    },
    {
      "anonymous": false,
      "inputs": [
        {
          "indexed": true,
          "internalType": "address",
          "name": "operator",
          "type": "address"
        },
        {
          "indexed": true,
          "internalType": "address",
          "name": "from",
          "type": "address"
        },
        {
          "indexed": true,
          "internalType": "address",
          "name": "to",
          "type": "address"
        },
        {
          "indexed": false,
          "internalType": "uint256",
          "name": "id",
          "type": "uint256"
        },
        {
          "indexed": false,
          "internalType": "uint256",
          "name": "value",
          "type": "uint256"
        }
      ],
      "name": "TransferSingle",
      "type": "event"
    },
    {
      "anonymous": false,
      "inputs": [
        {
          "indexed": false,
          "internalType": "string",
          "name": "value",
          "type": "string"
        },
        {
          "indexed": true,
          "internalType": "uint256",
          "name": "id",
          "type": "uint256"
        }
      ],
      "name": "URI",
      "type": "event"
    },
    {
      "inputs": [
        {
          "internalType": "address",
          "name": "account",
          "type": "address"
        },
        {
          "internalType": "uint256",
          "name": "id",
          "type": "uint256"
        }
      ],
      "name": "balanceOf",
      "outputs": [
        {
          "internalType": "uint256",
          "name": "",
          "type": "uint256"
        }
      ],
      "stateMutability": "view",
      "type": "function"
    },
    {
      "inputs": [
        {
          "internalType": "address[]",
          "name": "accounts",
          "type": "address[]"
        },
        {
          "internalType": "uint256[]",
          "name": "ids",
          "type": "uint256[]"
        }
      ],
      "name": "balanceOfBatch",
      "outputs": [
        {
          "internalType": "uint256[]",
          "name": "",
          "type": "uint256[]"
        }
      ],
      "stateMutability": "view",
      "type": "function"
    },
    {
      "inputs": [],
      "name": "decimals",
      "outputs": [
        {
          "internalType": "uint8",
          "name": "",
          "type": "uint8"
        }
      ],
      "stateMutability": "pure",
      "type": "function"
    },
    {
      "inputs": [
        {
          "internalType": "address",
          "name": "_account",
          "type": "address"
        }
      ],
      "name": "getAllBalances",
      "outputs": [
        {
          "internalType": "uint256[]",
          "name": "",
          "type": "uint256[]"
        }
      ],
      "stateMutability": "view",
      "type": "function"
    },
    {
      "inputs": [],
      "name": "getAllTransactions",
      "outputs": [
        {
          "components": [
            {
              "internalType": "string",
              "name": "invoiceHash",
              "type": "string"
            },
            {
              "internalType": "string",
              "name": "legalContractHash",
              "type": "string"
            },
            {
              "internalType": "address",
              "name": "anchor",
              "type": "address"
            },
            {
              "internalType": "address",
              "name": "supplier",
              "type": "address"
            },
            {
              "internalType": "uint256",
              "name": "totalSupply",
              "type": "uint256"
            },
            {
              "internalType": "uint256",
              "name": "paymentDate",
              "type": "uint256"
            },
            {
              "internalType": "bool",
              "name": "isRepaid",
              "type": "bool"
            }
          ],
          "internalType": "struct CashflowTokens.TokenMetaData[]",
          "name": "",
          "type": "tuple[]"
        }
      ],
      "stateMutability": "view",
      "type": "function"
    },
    {
      "inputs": [
        {
          "internalType": "address",
          "name": "account",
          "type": "address"
        },
        {
          "internalType": "address",
          "name": "operator",
          "type": "address"
        }
      ],
      "name": "isApprovedForAll",
      "outputs": [
        {
          "internalType": "bool",
          "name": "",
          "type": "bool"
        }
      ],
      "stateMutability": "view",
      "type": "function"
    },
    {
      "inputs": [],
      "name": "lastTokenId",
      "outputs": [
        {
          "internalType": "uint256",
          "name": "",
          "type": "uint256"
        }
      ],
      "stateMutability": "view",
      "type": "function"
    },
    {
      "inputs": [
        {
          "internalType": "string",
          "name": "_invoiceHash",
          "type": "string"
        },
        {
          "internalType": "string",
          "name": "_legalContractHash",
          "type": "string"
        },
        {
          "internalType": "address",
          "name": "_anchor",
          "type": "address"
        },
        {
          "internalType": "address",
          "name": "_supplier",
          "type": "address"
        },
        {
          "internalType": "uint256",
          "name": "_totalSupply",
          "type": "uint256"
        },
        {
          "internalType": "uint256",
          "name": "_paymentDate",
          "type": "uint256"
        }
      ],
      "name": "mint",
      "outputs": [
        {
          "internalType": "bool",
          "name": "",
          "type": "bool"
        }
      ],
      "stateMutability": "nonpayable",
      "type": "function"
    },
    {
      "inputs": [],
      "name": "name",
      "outputs": [
        {
          "internalType": "string",
          "name": "",
          "type": "string"
        }
      ],
      "stateMutability": "view",
      "type": "function"
    },
    {
      "inputs": [],
      "name": "owner",
      "outputs": [
        {
          "internalType": "address",
          "name": "",
          "type": "address"
        }
      ],
      "stateMutability": "view",
      "type": "function"
    },
    {
      "inputs": [
        {
          "internalType": "address",
          "name": "_account",
          "type": "address"
        },
        {
          "internalType": "uint256",
          "name": "_tokenId",
          "type": "uint256"
        }
      ],
      "name": "redeem",
      "outputs": [
        {
          "internalType": "bool",
          "name": "",
          "type": "bool"
        }
      ],
      "stateMutability": "nonpayable",
      "type": "function"
    },
    {
      "inputs": [
        {
          "internalType": "address",
          "name": "_account",
          "type": "address"
        },
        {
          "internalType": "uint256",
          "name": "_tokenId",
          "type": "uint256"
        }
      ],
      "name": "repay",
      "outputs": [
        {
          "internalType": "bool",
          "name": "",
          "type": "bool"
        }
      ],
      "stateMutability": "nonpayable",
      "type": "function"
    },
    {
      "inputs": [
        {
          "internalType": "uint256",
          "name": "_tokenId",
          "type": "uint256"
        }
      ],
      "name": "repayCircle",
      "outputs": [
        {
          "internalType": "bool",
          "name": "",
          "type": "bool"
        }
      ],
      "stateMutability": "nonpayable",
      "type": "function"
    },
    {
      "inputs": [
        {
          "internalType": "address",
          "name": "from",
          "type": "address"
        },
        {
          "internalType": "address",
          "name": "to",
          "type": "address"
        },
        {
          "internalType": "uint256[]",
          "name": "ids",
          "type": "uint256[]"
        },
        {
          "internalType": "uint256[]",
          "name": "amounts",
          "type": "uint256[]"
        },
        {
          "internalType": "bytes",
          "name": "data",
          "type": "bytes"
        }
      ],
      "name": "safeBatchTransferFrom",
      "outputs": [],
      "stateMutability": "nonpayable",
      "type": "function"
    },
    {
      "inputs": [
        {
          "internalType": "address",
          "name": "from",
          "type": "address"
        },
        {
          "internalType": "address",
          "name": "to",
          "type": "address"
        },
        {
          "internalType": "uint256",
          "name": "id",
          "type": "uint256"
        },
        {
          "internalType": "uint256",
          "name": "amount",
          "type": "uint256"
        },
        {
          "internalType": "bytes",
          "name": "data",
          "type": "bytes"
        }
      ],
      "name": "safeTransferFrom",
      "outputs": [],
      "stateMutability": "nonpayable",
      "type": "function"
    },
    {
      "inputs": [
        {
          "internalType": "address",
          "name": "operator",
          "type": "address"
        },
        {
          "internalType": "bool",
          "name": "approved",
          "type": "bool"
        }
      ],
      "name": "setApprovalForAll",
      "outputs": [],
      "stateMutability": "nonpayable",
      "type": "function"
    },
    {
      "inputs": [
        {
          "internalType": "bytes4",
          "name": "interfaceId",
          "type": "bytes4"
        }
      ],
      "name": "supportsInterface",
      "outputs": [
        {
          "internalType": "bool",
          "name": "",
          "type": "bool"
        }
      ],
      "stateMutability": "view",
      "type": "function"
    },
    {
      "inputs": [],
      "name": "symbol",
      "outputs": [
        {
          "internalType": "string",
          "name": "",
          "type": "string"
        }
      ],
      "stateMutability": "view",
      "type": "function"
    },
    {
      "inputs": [
        {
          "internalType": "uint256",
          "name": "",
          "type": "uint256"
        }
      ],
      "name": "tokenMetaData",
      "outputs": [
        {
          "internalType": "string",
          "name": "invoiceHash",
          "type": "string"
        },
        {
          "internalType": "string",
          "name": "legalContractHash",
          "type": "string"
        },
        {
          "internalType": "address",
          "name": "anchor",
          "type": "address"
        },
        {
          "internalType": "address",
          "name": "supplier",
          "type": "address"
        },
        {
          "internalType": "uint256",
          "name": "totalSupply",
          "type": "uint256"
        },
        {
          "internalType": "uint256",
          "name": "paymentDate",
          "type": "uint256"
        },
        {
          "internalType": "bool",
          "name": "isRepaid",
          "type": "bool"
        }
      ],
      "stateMutability": "view",
      "type": "function"
    },
    {
      "inputs": [
        {
          "internalType": "uint256",
          "name": "",
          "type": "uint256"
        }
      ],
      "name": "uri",
      "outputs": [
        {
          "internalType": "string",
          "name": "",
          "type": "string"
        }
      ],
      "stateMutability": "view",
      "type": "function"
    },
    {
      "inputs": [],
      "name": "usdcToken",
      "outputs": [
        {
          "internalType": "contract USDC",
          "name": "",
          "type": "address"
        }
      ],
      "stateMutability": "view",
      "type": "function"
    }
  ],
  "transactionHash": "0x779f386ce384d24910b92ce6b243be30c81b5a107118a5001247ae837f0cb601",
  "args": [
    "0x0120D55fe38c51C964115dDb2C06Db2B4fb38522",
    "http://localhost:3500/api/tokens/{id}"
  ],
  "solcInputHash": "56e65aeb26df081ffb690a7149abf769",
  "bytecode": "0x60c0604052600f60808190526e43617368666c6f7720546f6b656e7360881b60a0908152620000329160039190620000f3565b506040805180820190915260068082526531aa37b5b2b760d11b60209092019182526200006291600491620000f3565b503480156200007057600080fd5b506040516200279238038062002792833981016040819052620000939162000199565b806200009f81620000da565b5050600060055560078054336001600160a01b031991821617909155600680549091166001600160a01b0392909216919091179055620002e5565b8051620000ef906002906020840190620000f3565b5050565b828054620001019062000292565b90600052602060002090601f01602090048101928262000125576000855562000170565b82601f106200014057805160ff191683800117855562000170565b8280016001018555821562000170579182015b828111156200017057825182559160200191906001019062000153565b506200017e92915062000182565b5090565b5b808211156200017e576000815560010162000183565b60008060408385031215620001ac578182fd5b82516001600160a01b0381168114620001c3578283fd5b602084810151919350906001600160401b0380821115620001e2578384fd5b818601915086601f830112620001f6578384fd5b8151818111156200020b576200020b620002cf565b604051601f8201601f19908116603f01168101908382118183101715620002365762000236620002cf565b8160405282815289868487010111156200024e578687fd5b8693505b8284101562000271578484018601518185018701529285019262000252565b828411156200028257868684830101525b8096505050505050509250929050565b600181811c90821680620002a757607f821691505b60208210811415620002c957634e487b7160e01b600052602260045260246000fd5b50919050565b634e487b7160e01b600052604160045260246000fd5b61249d80620002f56000396000f3fe608060405234801561001057600080fd5b50600436106101365760003560e01c80634e1273f4116100b8578063c53d6ce11161007c578063c53d6ce1146102aa578063d2e81839146102bd578063e985e9c5146102d0578063ecc261231461030c578063f242432a1461033c578063f84ddf0b1461034f57600080fd5b80634e1273f4146102365780638da5cb5b1461025657806395d89b4114610269578063a22cb46514610271578063af6a34761461028457600080fd5b80631e9a6950116100ff5780631e9a6950146101d757806322867d78146101ea57806327506f53146101fd5780632eb2c2d614610212578063313ce5671461022757600080fd5b8062fdd58e1461013b57806301ffc9a71461016157806306fdde03146101845780630e89341c1461019957806311eac855146101ac575b600080fd5b61014e610149366004611d34565b610358565b6040519081526020015b60405180910390f35b61017461016f366004611e44565b6103ef565b6040519015158152602001610158565b61018c610441565b6040516101589190612171565b61018c6101a7366004611f10565b6104cf565b6006546101bf906001600160a01b031681565b6040516001600160a01b039091168152602001610158565b6101746101e5366004611d34565b610563565b6101746101f8366004611d34565b6106d3565b6102056108a2565b6040516101589190612068565b610225610220366004611bf5565b610b35565b005b60405160128152602001610158565b610249610244366004611d5d565b610bcc565b6040516101589190612130565b6007546101bf906001600160a01b031681565b61018c610d2e565b61022561027f366004611cfe565b610d3b565b610297610292366004611f10565b610e12565b6040516101589796959493929190612184565b6102496102b8366004611ba2565b610f6d565b6101746102cb366004611e7c565b61102c565b6101746102de366004611bc3565b6001600160a01b03918216600090815260016020908152604080832093909416825291909152205460ff1690565b61017461031a366004611f10565b6000908152600860205260409020600601805460ff1916600190811790915590565b61022561034a366004611c9b565b61115b565b61014e60055481565b60006001600160a01b0383166103c95760405162461bcd60e51b815260206004820152602b60248201527f455243313135353a2062616c616e636520717565727920666f7220746865207a60448201526a65726f206164647265737360a81b60648201526084015b60405180910390fd5b506000908152602081815260408083206001600160a01b03949094168352929052205490565b60006001600160e01b03198216636cdb3d1360e11b148061042057506001600160e01b031982166303a24d0760e21b145b8061043b57506301ffc9a760e01b6001600160e01b03198316145b92915050565b6003805461044e906122f5565b80601f016020809104026020016040519081016040528092919081815260200182805461047a906122f5565b80156104c75780601f1061049c576101008083540402835291602001916104c7565b820191906000526020600020905b8154815290600101906020018083116104aa57829003601f168201915b505050505081565b6060600280546104de906122f5565b80601f016020809104026020016040519081016040528092919081815260200182805461050a906122f5565b80156105575780601f1061052c57610100808354040283529160200191610557565b820191906000526020600020905b81548152906001019060200180831161053a57829003601f168201915b50505050509050919050565b6000806105708484610358565b9050600081116105c25760405162461bcd60e51b815260206004820152601d60248201527f4e6f20746f6b656e7320617661696c61626c6520746f2072656465656d00000060448201526064016103c0565b60008381526008602052604090206006015460ff1615156001146106375760405162461bcd60e51b815260206004820152602660248201527f546f6b656e2063616e6e6f742062652072656465656d6564206966206e6f74206044820152651c995c185a5960d21b60648201526084016103c0565b6106428484836111e2565b60065460405163a9059cbb60e01b81526001600160a01b038681166004830152602482018490529091169063a9059cbb90604401602060405180830381600087803b15801561069057600080fd5b505af11580156106a4573d6000803e3d6000fd5b505050506040513d601f19601f820116820180604052508101906106c89190611e28565b506001949350505050565b6006546040516370a0823160e01b81526001600160a01b03848116600483015260009283929116906370a082319060240160206040518083038186803b15801561071c57600080fd5b505afa158015610730573d6000803e3d6000fd5b505050506040513d601f19601f820116820180604052508101906107549190611f28565b6000848152600860205260409020600401549091508110156107d65760405162461bcd60e51b815260206004820152603560248201527f42616c616e6365206973206e6f7420656e6f7567682c20706c65617365206d616044820152746b65207375726520796f752068617665205553444360581b60648201526084016103c0565b6006546000848152600860205260409081902060049081015491516323b872dd60e01b81526001600160a01b03888116928201929092523060248201526044810192909252909116906323b872dd90606401602060405180830381600087803b15801561084257600080fd5b505af1158015610856573d6000803e3d6000fd5b505050506040513d601f19601f8201168201806040525081019061087a9190611e28565b5050506000818152600860205260409020600601805460ff1916600190811790915592915050565b6060600060055460016108b591906122dd565b67ffffffffffffffff8111156108db57634e487b7160e01b600052604160045260246000fd5b60405190808252806020026020018201604052801561096057816020015b61094d6040518060e00160405280606081526020016060815260200160006001600160a01b0316815260200160006001600160a01b0316815260200160008152602001600081526020016000151581525090565b8152602001906001900390816108f95790505b50905060005b6005548111610b2f5760008181526008602052604090819020815160e08101909252805482908290610997906122f5565b80601f01602080910402602001604051908101604052809291908181526020018280546109c3906122f5565b8015610a105780601f106109e557610100808354040283529160200191610a10565b820191906000526020600020905b8154815290600101906020018083116109f357829003601f168201915b50505050508152602001600182018054610a29906122f5565b80601f0160208091040260200160405190810160405280929190818152602001828054610a55906122f5565b8015610aa25780601f10610a7757610100808354040283529160200191610aa2565b820191906000526020600020905b815481529060010190602001808311610a8557829003601f168201915b505050918352505060028201546001600160a01b0390811660208301526003830154166040820152600482015460608201526005820154608082015260069091015460ff16151560a0909101528251839083908110610b1157634e487b7160e01b600052603260045260246000fd5b60200260200101819052508080610b2790612357565b915050610966565b50919050565b6001600160a01b038516331480610b515750610b5185336102de565b610bb85760405162461bcd60e51b815260206004820152603260248201527f455243313135353a207472616e736665722063616c6c6572206973206e6f74206044820152711bdddb995c881b9bdc88185c1c1c9bdd995960721b60648201526084016103c0565b610bc5858585858561135c565b5050505050565b60608151835114610c315760405162461bcd60e51b815260206004820152602960248201527f455243313135353a206163636f756e747320616e6420696473206c656e677468604482015268040dad2e6dac2e8c6d60bb1b60648201526084016103c0565b6000835167ffffffffffffffff811115610c5b57634e487b7160e01b600052604160045260246000fd5b604051908082528060200260200182016040528015610c84578160200160208202803683370190505b50905060005b8451811015610d2657610ceb858281518110610cb657634e487b7160e01b600052603260045260246000fd5b6020026020010151858381518110610cde57634e487b7160e01b600052603260045260246000fd5b6020026020010151610358565b828281518110610d0b57634e487b7160e01b600052603260045260246000fd5b6020908102919091010152610d1f81612357565b9050610c8a565b509392505050565b6004805461044e906122f5565b336001600160a01b0383161415610da65760405162461bcd60e51b815260206004820152602960248201527f455243313135353a2073657474696e6720617070726f76616c20737461747573604482015268103337b91039b2b63360b91b60648201526084016103c0565b3360008181526001602090815260408083206001600160a01b03871680855290835292819020805460ff191686151590811790915590519081529192917f17307eab39ab6107e8899845ad3d59bd9653f200f220920489ca2b5937696c31910160405180910390a35050565b600860205260009081526040902080548190610e2d906122f5565b80601f0160208091040260200160405190810160405280929190818152602001828054610e59906122f5565b8015610ea65780601f10610e7b57610100808354040283529160200191610ea6565b820191906000526020600020905b815481529060010190602001808311610e8957829003601f168201915b505050505090806001018054610ebb906122f5565b80601f0160208091040260200160405190810160405280929190818152602001828054610ee7906122f5565b8015610f345780601f10610f0957610100808354040283529160200191610f34565b820191906000526020600020905b815481529060010190602001808311610f1757829003601f168201915b505050600284015460038501546004860154600587015460069097015495966001600160a01b0393841696929093169450925060ff1687565b606060006005546001610f8091906122dd565b67ffffffffffffffff811115610fa657634e487b7160e01b600052604160045260246000fd5b604051908082528060200260200182016040528015610fcf578160200160208202803683370190505b50905060005b600554811161102557610fe88482610358565b82828151811061100857634e487b7160e01b600052603260045260246000fd5b60209081029190910101528061101d81612357565b915050610fd5565b5092915050565b600580546000918261103d83612357565b90915550506040805160e08101825288815260208082018990526001600160a01b0380891683850152871660608301526080820186905260a08201859052600060c083018190526005548152600882529290922081518051929384936110a69284920190611a0a565b5060208281015180516110bf9260018501920190611a0a565b506040828101516002830180546001600160a01b039283166001600160a01b03199182161790915560608501516003850180549190931691161790556080830151600483015560a083015160058084019190915560c0909301516006909201805492151560ff199093169290921790915590548151602081019092526000825261114d918791908790611555565b506001979650505050505050565b6001600160a01b038516331480611177575061117785336102de565b6111d55760405162461bcd60e51b815260206004820152602960248201527f455243313135353a2063616c6c6572206973206e6f74206f776e6572206e6f7260448201526808185c1c1c9bdd995960ba1b60648201526084016103c0565b610bc5858585858561165f565b6001600160a01b0383166112445760405162461bcd60e51b815260206004820152602360248201527f455243313135353a206275726e2066726f6d20746865207a65726f206164647260448201526265737360e81b60648201526084016103c0565b33611274818560006112558761177c565b61125e8761177c565b5050604080516020810190915260009052505050565b6000838152602081815260408083206001600160a01b0388168452909152902054828110156112f15760405162461bcd60e51b8152602060048201526024808201527f455243313135353a206275726e20616d6f756e7420657863656564732062616c604482015263616e636560e01b60648201526084016103c0565b6000848152602081815260408083206001600160a01b03898116808652918452828520888703905582518981529384018890529092908616917fc3d58168c5ae7397731d063d5bbf3d657854427343f4c083240f7aacaa2d0f62910160405180910390a45050505050565b81518351146113be5760405162461bcd60e51b815260206004820152602860248201527f455243313135353a2069647320616e6420616d6f756e7473206c656e677468206044820152670dad2e6dac2e8c6d60c31b60648201526084016103c0565b6001600160a01b0384166113e45760405162461bcd60e51b81526004016103c09061222a565b3360005b84518110156114e757600085828151811061141357634e487b7160e01b600052603260045260246000fd5b60200260200101519050600085838151811061143f57634e487b7160e01b600052603260045260246000fd5b602090810291909101810151600084815280835260408082206001600160a01b038e16835290935291909120549091508181101561148f5760405162461bcd60e51b81526004016103c09061226f565b6000838152602081815260408083206001600160a01b038e8116855292528083208585039055908b168252812080548492906114cc9084906122dd565b92505081905550505050806114e090612357565b90506113e8565b50846001600160a01b0316866001600160a01b0316826001600160a01b03167f4a39dc06d4c0dbc64b70af90fd698a233a518aa5d07e595d983b8c0526c8f7fb8787604051611537929190612143565b60405180910390a461154d8187878787876117d5565b505050505050565b6001600160a01b0384166115b55760405162461bcd60e51b815260206004820152602160248201527f455243313135353a206d696e7420746f20746865207a65726f206164647265736044820152607360f81b60648201526084016103c0565b336115cf816000876115c68861177c565b610bc58861177c565b6000848152602081815260408083206001600160a01b0389168452909152812080548592906115ff9084906122dd565b909155505060408051858152602081018590526001600160a01b0380881692600092918516917fc3d58168c5ae7397731d063d5bbf3d657854427343f4c083240f7aacaa2d0f62910160405180910390a4610bc581600087878787611940565b6001600160a01b0384166116855760405162461bcd60e51b81526004016103c09061222a565b336116958187876115c68861177c565b6000848152602081815260408083206001600160a01b038a168452909152902054838110156116d65760405162461bcd60e51b81526004016103c09061226f565b6000858152602081815260408083206001600160a01b038b81168552925280832087850390559088168252812080548692906117139084906122dd565b909155505060408051868152602081018690526001600160a01b03808916928a821692918616917fc3d58168c5ae7397731d063d5bbf3d657854427343f4c083240f7aacaa2d0f62910160405180910390a4611773828888888888611940565b50505050505050565b604080516001808252818301909252606091600091906020808301908036833701905050905082816000815181106117c457634e487b7160e01b600052603260045260246000fd5b602090810291909101015292915050565b6001600160a01b0384163b1561154d5760405163bc197c8160e01b81526001600160a01b0385169063bc197c81906118199089908990889088908890600401611fc5565b602060405180830381600087803b15801561183357600080fd5b505af1925050508015611863575060408051601f3d908101601f1916820190925261186091810190611e60565b60015b6119105761186f61239e565b806308c379a014156118a957506118846123b6565b8061188f57506118ab565b8060405162461bcd60e51b81526004016103c09190612171565b505b60405162461bcd60e51b815260206004820152603460248201527f455243313135353a207472616e7366657220746f206e6f6e20455243313135356044820152732932b1b2b4bb32b91034b6b83632b6b2b73a32b960611b60648201526084016103c0565b6001600160e01b0319811663bc197c8160e01b146117735760405162461bcd60e51b81526004016103c0906121e2565b6001600160a01b0384163b1561154d5760405163f23a6e6160e01b81526001600160a01b0385169063f23a6e61906119849089908990889088908890600401612023565b602060405180830381600087803b15801561199e57600080fd5b505af19250505080156119ce575060408051601f3d908101601f191682019092526119cb91810190611e60565b60015b6119da5761186f61239e565b6001600160e01b0319811663f23a6e6160e01b146117735760405162461bcd60e51b81526004016103c0906121e2565b828054611a16906122f5565b90600052602060002090601f016020900481019282611a385760008555611a7e565b82601f10611a5157805160ff1916838001178555611a7e565b82800160010185558215611a7e579182015b82811115611a7e578251825591602001919060010190611a63565b50611a8a929150611a8e565b5090565b5b80821115611a8a5760008155600101611a8f565b80356001600160a01b0381168114611aba57600080fd5b919050565b600082601f830112611acf578081fd5b81356020611adc826122b9565b604051611ae9828261232a565b8381528281019150858301600585901b87018401881015611b08578586fd5b855b85811015611b2657813584529284019290840190600101611b0a565b5090979650505050505050565b600082601f830112611b43578081fd5b813567ffffffffffffffff811115611b5d57611b5d612388565b604051611b74601f8301601f19166020018261232a565b818152846020838601011115611b88578283fd5b816020850160208301379081016020019190915292915050565b600060208284031215611bb3578081fd5b611bbc82611aa3565b9392505050565b60008060408385031215611bd5578081fd5b611bde83611aa3565b9150611bec60208401611aa3565b90509250929050565b600080600080600060a08688031215611c0c578081fd5b611c1586611aa3565b9450611c2360208701611aa3565b9350604086013567ffffffffffffffff80821115611c3f578283fd5b611c4b89838a01611abf565b94506060880135915080821115611c60578283fd5b611c6c89838a01611abf565b93506080880135915080821115611c81578283fd5b50611c8e88828901611b33565b9150509295509295909350565b600080600080600060a08688031215611cb2578081fd5b611cbb86611aa3565b9450611cc960208701611aa3565b93506040860135925060608601359150608086013567ffffffffffffffff811115611cf2578182fd5b611c8e88828901611b33565b60008060408385031215611d10578182fd5b611d1983611aa3565b91506020830135611d2981612440565b809150509250929050565b60008060408385031215611d46578182fd5b611d4f83611aa3565b946020939093013593505050565b60008060408385031215611d6f578182fd5b823567ffffffffffffffff80821115611d86578384fd5b818501915085601f830112611d99578384fd5b81356020611da6826122b9565b604051611db3828261232a565b8381528281019150858301600585901b870184018b1015611dd2578889fd5b8896505b84871015611dfb57611de781611aa3565b835260019690960195918301918301611dd6565b5096505086013592505080821115611e11578283fd5b50611e1e85828601611abf565b9150509250929050565b600060208284031215611e39578081fd5b8151611bbc81612440565b600060208284031215611e55578081fd5b8135611bbc81612451565b600060208284031215611e71578081fd5b8151611bbc81612451565b60008060008060008060c08789031215611e94578384fd5b863567ffffffffffffffff80821115611eab578586fd5b611eb78a838b01611b33565b97506020890135915080821115611ecc578586fd5b50611ed989828a01611b33565b955050611ee860408801611aa3565b9350611ef660608801611aa3565b92506080870135915060a087013590509295509295509295565b600060208284031215611f21578081fd5b5035919050565b600060208284031215611f39578081fd5b5051919050565b6000815180845260208085019450808401835b83811015611f6f57815187529582019590820190600101611f53565b509495945050505050565b60008151808452815b81811015611f9f57602081850181015186830182015201611f83565b81811115611fb05782602083870101525b50601f01601f19169290920160200192915050565b6001600160a01b0386811682528516602082015260a060408201819052600090611ff190830186611f40565b82810360608401526120038186611f40565b905082810360808401526120178185611f7a565b98975050505050505050565b6001600160a01b03868116825285166020820152604081018490526060810183905260a06080820181905260009061205d90830184611f7a565b979650505050505050565b60006020808301818452808551808352604092508286019150828160051b870101848801865b8381101561212257603f19898403018552815160e081518186526120b482870182611f7a565b915050888201518582038a8701526120cc8282611f7a565b838a01516001600160a01b03908116888c0152606080860151909116908801526080808501519088015260a0808501519088015260c093840151151593909601929092525050938601939086019060010161208e565b509098975050505050505050565b602081526000611bbc6020830184611f40565b6040815260006121566040830185611f40565b82810360208401526121688185611f40565b95945050505050565b602081526000611bbc6020830184611f7a565b60e08152600061219760e083018a611f7a565b82810360208401526121a9818a611f7a565b6001600160a01b03988916604085015296909716606083015250608081019390935260a0830191909152151560c0909101529392505050565b60208082526028908201527f455243313135353a204552433131353552656365697665722072656a656374656040820152676420746f6b656e7360c01b606082015260800190565b60208082526025908201527f455243313135353a207472616e7366657220746f20746865207a65726f206164604082015264647265737360d81b606082015260800190565b6020808252602a908201527f455243313135353a20696e73756666696369656e742062616c616e636520666f60408201526939103a3930b739b332b960b11b606082015260800190565b600067ffffffffffffffff8211156122d3576122d3612388565b5060051b60200190565b600082198211156122f0576122f0612372565b500190565b600181811c9082168061230957607f821691505b60208210811415610b2f57634e487b7160e01b600052602260045260246000fd5b601f8201601f1916810167ffffffffffffffff8111828210171561235057612350612388565b6040525050565b600060001982141561236b5761236b612372565b5060010190565b634e487b7160e01b600052601160045260246000fd5b634e487b7160e01b600052604160045260246000fd5b600060033d11156123b357600481823e5160e01c5b90565b600060443d10156123c45790565b6040516003193d81016004833e81513d67ffffffffffffffff81602484011181841117156123f457505050505090565b828501915081518181111561240c5750505050505090565b843d87010160208285010111156124265750505050505090565b6124356020828601018761232a565b509095945050505050565b801515811461244e57600080fd5b50565b6001600160e01b03198116811461244e57600080fdfea2646970667358221220584b5a031ceefc9fd195b0bafcff30f26c0e096799192c82c78c9c911a8ffd5d64736f6c63430008040033",
  "devdoc": {
    "kind": "dev",
    "methods": {
      "balanceOf(address,uint256)": {
        "details": "See {IERC1155-balanceOf}. Requirements: - `account` cannot be the zero address."
      },
      "balanceOfBatch(address[],uint256[])": {
        "details": "See {IERC1155-balanceOfBatch}. Requirements: - `accounts` and `ids` must have the same length."
      },
      "isApprovedForAll(address,address)": {
        "details": "See {IERC1155-isApprovedForAll}."
      },
      "safeBatchTransferFrom(address,address,uint256[],uint256[],bytes)": {
        "details": "See {IERC1155-safeBatchTransferFrom}."
      },
      "safeTransferFrom(address,address,uint256,uint256,bytes)": {
        "details": "See {IERC1155-safeTransferFrom}."
      },
      "setApprovalForAll(address,bool)": {
        "details": "See {IERC1155-setApprovalForAll}."
      },
      "supportsInterface(bytes4)": {
        "details": "See {IERC165-supportsInterface}."
      },
      "uri(uint256)": {
        "details": "See {IERC1155MetadataURI-uri}. This implementation returns the same URI for *all* token types. It relies on the token type ID substitution mechanism https://eips.ethereum.org/EIPS/eip-1155#metadata[defined in the EIP]. Clients calling this function must replace the `\\{id\\}` substring with the actual token type ID."
      }
    },
    "version": 1
  },
  "userdoc": {
    "kind": "user",
    "methods": {},
    "version": 1
  },
  "storageLayout": {
    "storage": [
      {
        "astId": 77,
        "contract": "contracts/CashflowTokens.sol:CashflowTokens",
        "label": "_balances",
        "offset": 0,
        "slot": "0",
        "type": "t_mapping(t_uint256,t_mapping(t_address,t_uint256))"
      },
      {
        "astId": 83,
        "contract": "contracts/CashflowTokens.sol:CashflowTokens",
        "label": "_operatorApprovals",
        "offset": 0,
        "slot": "1",
        "type": "t_mapping(t_address,t_mapping(t_address,t_bool))"
      },
      {
        "astId": 85,
        "contract": "contracts/CashflowTokens.sol:CashflowTokens",
        "label": "_uri",
        "offset": 0,
        "slot": "2",
        "type": "t_string_storage"
      },
      {
        "astId": 4842,
        "contract": "contracts/CashflowTokens.sol:CashflowTokens",
        "label": "name",
        "offset": 0,
        "slot": "3",
        "type": "t_string_storage"
      },
      {
        "astId": 4845,
        "contract": "contracts/CashflowTokens.sol:CashflowTokens",
        "label": "symbol",
        "offset": 0,
        "slot": "4",
        "type": "t_string_storage"
      },
      {
        "astId": 4847,
        "contract": "contracts/CashflowTokens.sol:CashflowTokens",
        "label": "lastTokenId",
        "offset": 0,
        "slot": "5",
        "type": "t_uint256"
      },
      {
        "astId": 4850,
        "contract": "contracts/CashflowTokens.sol:CashflowTokens",
        "label": "usdcToken",
        "offset": 0,
        "slot": "6",
        "type": "t_contract(USDC)8998"
      },
      {
        "astId": 4852,
        "contract": "contracts/CashflowTokens.sol:CashflowTokens",
        "label": "owner",
        "offset": 0,
        "slot": "7",
        "type": "t_address"
      },
      {
        "astId": 4857,
        "contract": "contracts/CashflowTokens.sol:CashflowTokens",
        "label": "tokenMetaData",
        "offset": 0,
        "slot": "8",
        "type": "t_mapping(t_uint256,t_struct(TokenMetaData)4839_storage)"
      }
    ],
    "types": {
      "t_address": {
        "encoding": "inplace",
        "label": "address",
        "numberOfBytes": "20"
      },
      "t_bool": {
        "encoding": "inplace",
        "label": "bool",
        "numberOfBytes": "1"
      },
      "t_contract(USDC)8998": {
        "encoding": "inplace",
        "label": "contract USDC",
        "numberOfBytes": "20"
      },
      "t_mapping(t_address,t_bool)": {
        "encoding": "mapping",
        "key": "t_address",
        "label": "mapping(address => bool)",
        "numberOfBytes": "32",
        "value": "t_bool"
      },
      "t_mapping(t_address,t_mapping(t_address,t_bool))": {
        "encoding": "mapping",
        "key": "t_address",
        "label": "mapping(address => mapping(address => bool))",
        "numberOfBytes": "32",
        "value": "t_mapping(t_address,t_bool)"
      },
      "t_mapping(t_address,t_uint256)": {
        "encoding": "mapping",
        "key": "t_address",
        "label": "mapping(address => uint256)",
        "numberOfBytes": "32",
        "value": "t_uint256"
      },
      "t_mapping(t_uint256,t_mapping(t_address,t_uint256))": {
        "encoding": "mapping",
        "key": "t_uint256",
        "label": "mapping(uint256 => mapping(address => uint256))",
        "numberOfBytes": "32",
        "value": "t_mapping(t_address,t_uint256)"
      },
      "t_mapping(t_uint256,t_struct(TokenMetaData)4839_storage)": {
        "encoding": "mapping",
        "key": "t_uint256",
        "label": "mapping(uint256 => struct CashflowTokens.TokenMetaData)",
        "numberOfBytes": "32",
        "value": "t_struct(TokenMetaData)4839_storage"
      },
      "t_string_storage": {
        "encoding": "bytes",
        "label": "string",
        "numberOfBytes": "32"
      },
      "t_struct(TokenMetaData)4839_storage": {
        "encoding": "inplace",
        "label": "struct CashflowTokens.TokenMetaData",
        "members": [
          {
            "astId": 4826,
            "contract": "contracts/CashflowTokens.sol:CashflowTokens",
            "label": "invoiceHash",
            "offset": 0,
            "slot": "0",
            "type": "t_string_storage"
          },
          {
            "astId": 4828,
            "contract": "contracts/CashflowTokens.sol:CashflowTokens",
            "label": "legalContractHash",
            "offset": 0,
            "slot": "1",
            "type": "t_string_storage"
          },
          {
            "astId": 4830,
            "contract": "contracts/CashflowTokens.sol:CashflowTokens",
            "label": "anchor",
            "offset": 0,
            "slot": "2",
            "type": "t_address"
          },
          {
            "astId": 4832,
            "contract": "contracts/CashflowTokens.sol:CashflowTokens",
            "label": "supplier",
            "offset": 0,
            "slot": "3",
            "type": "t_address"
          },
          {
            "astId": 4834,
            "contract": "contracts/CashflowTokens.sol:CashflowTokens",
            "label": "totalSupply",
            "offset": 0,
            "slot": "4",
            "type": "t_uint256"
          },
          {
            "astId": 4836,
            "contract": "contracts/CashflowTokens.sol:CashflowTokens",
            "label": "paymentDate",
            "offset": 0,
            "slot": "5",
            "type": "t_uint256"
          },
          {
            "astId": 4838,
            "contract": "contracts/CashflowTokens.sol:CashflowTokens",
            "label": "isRepaid",
            "offset": 0,
            "slot": "6",
            "type": "t_bool"
          }
        ],
        "numberOfBytes": "224"
      },
      "t_uint256": {
        "encoding": "inplace",
        "label": "uint256",
        "numberOfBytes": "32"
      }
    }
  }
}