{
  "address": "0x8be34D7830d446747B95Aa3ace0eaA4FF19b2007",
  "abi": [
    {
      "inputs": [
        {
          "internalType": "address",
          "name": "_cashflowTokens",
          "type": "address"
        },
        {
          "internalType": "address",
          "name": "_SDT",
          "type": "address"
        }
      ],
      "stateMutability": "nonpayable",
      "type": "constructor"
    },
    {
      "anonymous": false,
      "inputs": [
        {
          "indexed": false,
          "internalType": "address",
          "name": "operator",
          "type": "address"
        },
        {
          "indexed": false,
          "internalType": "address",
          "name": "from",
          "type": "address"
        },
        {
          "indexed": false,
          "internalType": "address",
          "name": "to",
          "type": "address"
        },
        {
          "indexed": false,
          "internalType": "uint256",
          "name": "amount",
          "type": "uint256"
        },
        {
          "indexed": false,
          "internalType": "bytes",
          "name": "userData",
          "type": "bytes"
        },
        {
          "indexed": false,
          "internalType": "bytes",
          "name": "operatorData",
          "type": "bytes"
        }
      ],
      "name": "Received",
      "type": "event"
    },
    {
      "inputs": [
        {
          "internalType": "contract ISuperToken",
          "name": "",
          "type": "address"
        },
        {
          "internalType": "address",
          "name": "",
          "type": "address"
        },
        {
          "internalType": "bytes32",
          "name": "",
          "type": "bytes32"
        },
        {
          "internalType": "bytes",
          "name": "",
          "type": "bytes"
        },
        {
          "internalType": "bytes",
          "name": "",
          "type": "bytes"
        },
        {
          "internalType": "bytes",
          "name": "",
          "type": "bytes"
        }
      ],
      "name": "afterAgreementCreated",
      "outputs": [
        {
          "internalType": "bytes",
          "name": "",
          "type": "bytes"
        }
      ],
      "stateMutability": "nonpayable",
      "type": "function"
    },
    {
      "inputs": [
        {
          "internalType": "contract ISuperToken",
          "name": "",
          "type": "address"
        },
        {
          "internalType": "address",
          "name": "",
          "type": "address"
        },
        {
          "internalType": "bytes32",
          "name": "",
          "type": "bytes32"
        },
        {
          "internalType": "bytes",
          "name": "",
          "type": "bytes"
        },
        {
          "internalType": "bytes",
          "name": "",
          "type": "bytes"
        },
        {
          "internalType": "bytes",
          "name": "",
          "type": "bytes"
        }
      ],
      "name": "afterAgreementTerminated",
      "outputs": [
        {
          "internalType": "bytes",
          "name": "",
          "type": "bytes"
        }
      ],
      "stateMutability": "nonpayable",
      "type": "function"
    },
    {
      "inputs": [
        {
          "internalType": "contract ISuperToken",
          "name": "",
          "type": "address"
        },
        {
          "internalType": "address",
          "name": "",
          "type": "address"
        },
        {
          "internalType": "bytes32",
          "name": "",
          "type": "bytes32"
        },
        {
          "internalType": "bytes",
          "name": "",
          "type": "bytes"
        },
        {
          "internalType": "bytes",
          "name": "",
          "type": "bytes"
        },
        {
          "internalType": "bytes",
          "name": "",
          "type": "bytes"
        }
      ],
      "name": "afterAgreementUpdated",
      "outputs": [
        {
          "internalType": "bytes",
          "name": "",
          "type": "bytes"
        }
      ],
      "stateMutability": "nonpayable",
      "type": "function"
    },
    {
      "inputs": [
        {
          "internalType": "address",
          "name": "borrower",
          "type": "address"
        },
        {
          "internalType": "uint256",
          "name": "amount",
          "type": "uint256"
        },
        {
          "internalType": "uint256",
          "name": "tokenId",
          "type": "uint256"
        }
      ],
      "name": "approveBorrower",
      "outputs": [],
      "stateMutability": "nonpayable",
      "type": "function"
    },
    {
      "inputs": [
        {
          "internalType": "contract ISuperToken",
          "name": "",
          "type": "address"
        },
        {
          "internalType": "address",
          "name": "",
          "type": "address"
        },
        {
          "internalType": "bytes32",
          "name": "",
          "type": "bytes32"
        },
        {
          "internalType": "bytes",
          "name": "",
          "type": "bytes"
        },
        {
          "internalType": "bytes",
          "name": "",
          "type": "bytes"
        }
      ],
      "name": "beforeAgreementCreated",
      "outputs": [
        {
          "internalType": "bytes",
          "name": "",
          "type": "bytes"
        }
      ],
      "stateMutability": "view",
      "type": "function"
    },
    {
      "inputs": [
        {
          "internalType": "contract ISuperToken",
          "name": "",
          "type": "address"
        },
        {
          "internalType": "address",
          "name": "",
          "type": "address"
        },
        {
          "internalType": "bytes32",
          "name": "",
          "type": "bytes32"
        },
        {
          "internalType": "bytes",
          "name": "",
          "type": "bytes"
        },
        {
          "internalType": "bytes",
          "name": "",
          "type": "bytes"
        }
      ],
      "name": "beforeAgreementTerminated",
      "outputs": [
        {
          "internalType": "bytes",
          "name": "",
          "type": "bytes"
        }
      ],
      "stateMutability": "view",
      "type": "function"
    },
    {
      "inputs": [
        {
          "internalType": "contract ISuperToken",
          "name": "",
          "type": "address"
        },
        {
          "internalType": "address",
          "name": "",
          "type": "address"
        },
        {
          "internalType": "bytes32",
          "name": "",
          "type": "bytes32"
        },
        {
          "internalType": "bytes",
          "name": "",
          "type": "bytes"
        },
        {
          "internalType": "bytes",
          "name": "",
          "type": "bytes"
        }
      ],
      "name": "beforeAgreementUpdated",
      "outputs": [
        {
          "internalType": "bytes",
          "name": "",
          "type": "bytes"
        }
      ],
      "stateMutability": "view",
      "type": "function"
    },
    {
      "inputs": [
        {
          "internalType": "address",
          "name": "asset",
          "type": "address"
        },
        {
          "internalType": "uint256",
          "name": "amount",
          "type": "uint256"
        },
        {
          "internalType": "bool",
          "name": "isPull",
          "type": "bool"
        }
      ],
      "name": "depositCollateral",
      "outputs": [],
      "stateMutability": "nonpayable",
      "type": "function"
    },
    {
      "inputs": [
        {
          "internalType": "address",
          "name": "account",
          "type": "address"
        }
      ],
      "name": "getUnderlying",
      "outputs": [
        {
          "internalType": "uint256",
          "name": "",
          "type": "uint256"
        }
      ],
      "stateMutability": "view",
      "type": "function"
    },
    {
      "inputs": [
        {
          "internalType": "address",
          "name": "",
          "type": "address"
        },
        {
          "internalType": "address",
          "name": "",
          "type": "address"
        },
        {
          "internalType": "uint256[]",
          "name": "",
          "type": "uint256[]"
        },
        {
          "internalType": "uint256[]",
          "name": "",
          "type": "uint256[]"
        },
        {
          "internalType": "bytes",
          "name": "",
          "type": "bytes"
        }
      ],
      "name": "onERC1155BatchReceived",
      "outputs": [
        {
          "internalType": "bytes4",
          "name": "",
          "type": "bytes4"
        }
      ],
      "stateMutability": "nonpayable",
      "type": "function"
    },
    {
      "inputs": [
        {
          "internalType": "address",
          "name": "",
          "type": "address"
        },
        {
          "internalType": "address",
          "name": "",
          "type": "address"
        },
        {
          "internalType": "uint256",
          "name": "",
          "type": "uint256"
        },
        {
          "internalType": "uint256",
          "name": "",
          "type": "uint256"
        },
        {
          "internalType": "bytes",
          "name": "",
          "type": "bytes"
        }
      ],
      "name": "onERC1155Received",
      "outputs": [
        {
          "internalType": "bytes4",
          "name": "",
          "type": "bytes4"
        }
      ],
      "stateMutability": "nonpayable",
      "type": "function"
    },
    {
      "inputs": [
        {
          "internalType": "uint256",
          "name": "amount",
          "type": "uint256"
        },
        {
          "internalType": "address",
          "name": "asset",
          "type": "address"
        }
      ],
      "name": "repayBorrower",
      "outputs": [],
      "stateMutability": "nonpayable",
      "type": "function"
    },
    {
      "inputs": [
        {
          "internalType": "bytes4",
          "name": "interfaceId",
          "type": "bytes4"
        }
      ],
      "name": "supportsInterface",
      "outputs": [
        {
          "internalType": "bool",
          "name": "",
          "type": "bool"
        }
      ],
      "stateMutability": "view",
      "type": "function"
    },
    {
      "inputs": [
        {
          "internalType": "address",
          "name": "operator",
          "type": "address"
        },
        {
          "internalType": "address",
          "name": "from",
          "type": "address"
        },
        {
          "internalType": "address",
          "name": "to",
          "type": "address"
        },
        {
          "internalType": "uint256",
          "name": "amount",
          "type": "uint256"
        },
        {
          "internalType": "bytes",
          "name": "userData",
          "type": "bytes"
        },
        {
          "internalType": "bytes",
          "name": "operatorData",
          "type": "bytes"
        }
      ],
      "name": "tokensReceived",
      "outputs": [],
      "stateMutability": "nonpayable",
      "type": "function"
    },
    {
      "inputs": [],
      "name": "withdrawCollateral",
      "outputs": [],
      "stateMutability": "nonpayable",
      "type": "function"
    }
  ],
  "transactionHash": "0x5b561ec6b3508b25c586e6d5aa0c50989a24259dfe433c42fea985d9f7b8bb5c",
  "args": [
    "0xE076341997771AB62fe184d1101BCd78d18053e2",
    "0x8484C6b4dEa25cc60c5d8bB0477af74Ba9C7eb64"
  ],
  "solcInputHash": "56e65aeb26df081ffb690a7149abf769",
  "bytecode": "0x600080546001600160a01b031916731820a4b7618bde71dce8cdc73aab6c95905fad2417905560c0604052601560808190527f446565702046696e204c656e64696e6720506f6f6c000000000000000000000060a0908152620000669160019190620002b3565b5064e8d4a5100060025566038d7ea4c68000600355600580546001600160a01b0319908116732058a9d7613eee744279e3856ef0eada5fcbaa7e179091556006805482167383a7bc369cfd55d9f00267318b6d221fb9fa739f179055600780548216732271e3fef9e15046d09e1d78a8ff038c691e9cf9179055600880548216739198f13b08e299d85e096929fa9781a1e3d5d82717905560098054821673fa3bd19110d986c5e5e9dd5f69362d05035d045b179055600a805482167349e565ed1bdc17f3d220f72df0857c26fa83f873179055600b805490911673eb796bdb90ffa0f28255275e16936d25d34186031790553480156200016657600080fd5b5060405162001e0538038062001e05833981016040819052620001899162000376565b6000546040516329965a1d60e01b815230600482018190527fb281fc8c12954d22544db45de3159a39272895b169a852b314f9cc762e44c53b602483015260448201526001600160a01b03909116906329965a1d90606401600060405180830381600087803b158015620001fc57600080fd5b505af115801562000211573d6000803e3d6000fd5b5050600e8054336001600160a01b031991821617909155600d805482166001600160a01b0387811691909117909155600c805490921685821617909155600b546040516315a722b960e31b815260016004820181905294509116915063ad3915c890602401600060405180830381600087803b1580156200029157600080fd5b505af1158015620002a6573d6000803e3d6000fd5b50505050505050620003ea565b828054620002c190620003ad565b90600052602060002090601f016020900481019282620002e5576000855562000330565b82601f106200030057805160ff191683800117855562000330565b8280016001018555821562000330579182015b828111156200033057825182559160200191906001019062000313565b506200033e92915062000342565b5090565b5b808211156200033e576000815560010162000343565b80516001600160a01b03811681146200037157600080fd5b919050565b6000806040838503121562000389578182fd5b620003948362000359565b9150620003a46020840162000359565b90509250929050565b600181811c90821680620003c257607f821691505b60208210811415620003e457634e487b7160e01b600052602260045260246000fd5b50919050565b611a0b80620003fa6000396000f3fe608060405234801561001057600080fd5b50600436106100f45760003560e01c806359c153be11610097578063bc197c8111610066578063bc197c8114610207578063d86ed3e51461023f578063e5feb78114610252578063f23a6e611461026557600080fd5b806359c153be146101c65780635f9e7d77146101ce5780636b656dbd146101e1578063884d1f40146101f457600080fd5b8063230dbd29116100d3578063230dbd291461014957806330d9c915146101695780634e89a7111461017c57806353c11f99146101b357600080fd5b806223de29146100f957806301ffc9a71461010e578063102680e314610136575b600080fd5b61010c61010736600461116d565b610284565b005b61012161011c3660046113bd565b6102d3565b60405190151581526020015b60405180910390f35b61010c6101443660046115d3565b61030a565b61015c6101573660046114f4565b6103d1565b60405161012d919061179d565b61015c610177366004611458565b610438565b6101a561018a36600461114a565b6001600160a01b031660009081526004602052604090205490565b60405190815260200161012d565b61015c6101c13660046114f4565b61049b565b61010c610500565b61015c6101dc366004611458565b610725565b61010c6101ef36600461136d565b61078c565b61015c610202366004611458565b6108a9565b61022661021536600461121b565b63bc197c8160e01b95945050505050565b6040516001600160e01b0319909116815260200161012d565b61015c61024d3660046114f4565b61090c565b61010c61026036600461132c565b61096e565b6102266102733660046112c5565b63f23a6e6160e01b95945050505050565b7fbdbda4be6feb8c39b0e8a33771fc4c1d96ff68d5e1d11462e3f6590bf9da395e88888888888888886040516102c19897969594939291906116fa565b60405180910390a15050505050505050565b60006001600160e01b03198216630271189760e51b148061030457506301ffc9a760e01b6001600160e01b03198316145b92915050565b61031f6001600160a01b038216333085610cd7565b600854610339906001600160a01b03838116911684610d48565b60085460405163573ade8160e01b81526001600160a01b03838116600483015260248201859052600160448301523060648301529091169063573ade8190608401602060405180830381600087803b15801561039457600080fd5b505af11580156103a8573d6000803e3d6000fd5b505050506040513d601f19601f820116820180604052508101906103cc91906115bb565b505050565b60405162461bcd60e51b815260206004820152602e60248201527f556e737570706f727465642063616c6c6261636b202d2041667465722041677260448201526d19595b595b9d08155c19185d195960921b60648201526060906084015b60405180910390fd5b60405162461bcd60e51b815260206004820152602f60248201527f556e737570706f727465642063616c6c6261636b202d204265666f726520416760448201526e1c99595b595b9d0810dc99585d1959608a1b606482015260609060840161042f565b60405162461bcd60e51b815260206004820152603160248201527f556e737570706f727465642063616c6c6261636b202d2041667465722041677260448201527019595b595b9d0815195c9b5a5b985d1959607a1b606482015260609060840161042f565b3360009081526004602052604090205461054a5760405162461bcd60e51b815260206004820152600b60248201526a4e6f206465706f7369747360a81b604482015260640161042f565b600c54600254336000818152600460205260409020546001600160a01b0390931692639dc29fac9261057b91611938565b6040516001600160e01b031960e085901b1681526001600160a01b0390921660048301526024820152604401600060405180830381600087803b1580156105c157600080fd5b505af11580156105d5573d6000803e3d6000fd5b505033600081815260046020819052604080832080549390556008546005549151631a4ca37b60e21b81526001600160a01b0392831693810193909352602483018490526044830194909452919450911691506369328dec90606401602060405180830381600087803b15801561064b57600080fd5b505af115801561065f573d6000803e3d6000fd5b505050506040513d601f19601f8201168201806040525081019061068391906115bb565b50600a54600c546040805160008082526020820192839052635a5999e360e11b90925290926001600160a01b039081169263b4b333c6926106cf929091169030903390602481016117b0565b600060405180830381600087803b1580156106e957600080fd5b505af11580156106fd573d6000803e3d6000fd5b505050506040513d6000823e601f3d908101601f191682016040526103cc91908101906113e5565b60405162461bcd60e51b815260206004820152603360248201527f556e737570706f727465642063616c6c6261636b202d20204265666f7265204160448201527219dc99595b595b9d0815195c9b5a5b985d1959606a1b606482015260609060840161042f565b600d546001600160a01b031663f242432a3330848660006040519080825280601f01601f1916602001820160405280156107cd576020820181803683370190505b506040518663ffffffff1660e01b81526004016107ee959493929190611758565b600060405180830381600087803b15801561080857600080fd5b505af115801561081c573d6000803e3d6000fd5b505050506000600a8360096108319190611938565b61083b9190611895565b600654604051630c04a8a160e41b81526001600160a01b0387811660048301526024820184905292935091169063c04a8a1090604401600060405180830381600087803b15801561088b57600080fd5b505af115801561089f573d6000803e3d6000fd5b5050505050505050565b60405162461bcd60e51b815260206004820152602f60248201527f556e737570706f727465642063616c6c6261636b202d204265666f726520416760448201526e1c99595b595b9d081d5c19185d1959608a1b606482015260609060840161042f565b60405162461bcd60e51b815260206004820152602e60248201527f556e737570706f727465642063616c6c6261636b202d2041667465722041677260448201526d19595b595b9d0810dc99585d195960921b606482015260609060840161042f565b8015610989576109896001600160a01b038416333085610cd7565b6008546109a3906001600160a01b03858116911684610d48565b60085460405163e8eda9df60e01b81526001600160a01b03858116600483015260248201859052306044830152600060648301529091169063e8eda9df90608401600060405180830381600087803b1580156109fe57600080fd5b505af1158015610a12573d6000803e3d6000fd5b50503360009081526004602052604081208054869450909250610a3690849061187d565b9091555050600c546002546001600160a01b03909116906340c10f19903390610a5f9086611938565b6040516001600160e01b031960e085901b1681526001600160a01b0390921660048301526024820152604401600060405180830381600087803b158015610aa557600080fd5b505af1158015610ab9573d6000803e3d6000fd5b50506009546040516335ea6a7560e01b81526001600160a01b0387811660048301526000945090911691506335ea6a75906024016101406040518083038186803b158015610b0657600080fd5b505afa158015610b1a573d6000803e3d6000fd5b505050506040513d601f19601f82011682018060405250810190610b3e9190611602565b5050505050509350505050600060025482610b599190611895565b600c546002549192506001600160a01b0316906340c10f1990309087610b8086600a611938565b610b8a9190611938565b610b949190611938565b6040516001600160e01b031960e085901b1681526001600160a01b0390921660048301526024820152604401600060405180830381600087803b158015610bda57600080fd5b505af1158015610bee573d6000803e3d6000fd5b5050600a54600c54600354600254600095506001600160a01b0393841694506362fc305e9390921691339190610c24908b611938565b610c2e9190611895565b610c3c6301e1338088611895565b610c4691906118b5565b604080516000815260208101918290526001600160e01b031960e087901b16909152610c7893929190602481016117ee565b600060405180830381600087803b158015610c9257600080fd5b505af1158015610ca6573d6000803e3d6000fd5b505050506040513d6000823e601f3d908101601f19168201604052610cce91908101906113e5565b50505050505050565b6040516001600160a01b0380851660248301528316604482015260648101829052610d429085906323b872dd60e01b906084015b60408051601f198184030181529190526020810180516001600160e01b03166001600160e01b031990931692909217909152610e6c565b50505050565b801580610dd15750604051636eb1769f60e11b81523060048201526001600160a01b03838116602483015284169063dd62ed3e9060440160206040518083038186803b158015610d9757600080fd5b505afa158015610dab573d6000803e3d6000fd5b505050506040513d601f19601f82011682018060405250810190610dcf91906115bb565b155b610e3c5760405162461bcd60e51b815260206004820152603660248201527f5361666545524332303a20617070726f76652066726f6d206e6f6e2d7a65726f60448201527520746f206e6f6e2d7a65726f20616c6c6f77616e636560501b606482015260840161042f565b6040516001600160a01b0383166024820152604481018290526103cc90849063095ea7b360e01b90606401610d0b565b610e7e826001600160a01b0316610ff3565b610eca5760405162461bcd60e51b815260206004820152601f60248201527f5361666545524332303a2063616c6c20746f206e6f6e2d636f6e747261637400604482015260640161042f565b600080836001600160a01b031683604051610ee591906116de565b6000604051808303816000865af19150503d8060008114610f22576040519150601f19603f3d011682016040523d82523d6000602084013e610f27565b606091505b509150915081610f795760405162461bcd60e51b815260206004820181905260248201527f5361666545524332303a206c6f772d6c6576656c2063616c6c206661696c6564604482015260640161042f565b805115610d425780806020019051810190610f9491906113a1565b610d425760405162461bcd60e51b815260206004820152602a60248201527f5361666545524332303a204552433230206f7065726174696f6e20646964206e6044820152691bdd081cdd58d8d9595960b21b606482015260840161042f565b6000813f7fc5d2460186f7233c927e7db2dcc703c0e500b653ca82273b7bfad8045d85a47081811480159061102757508115155b949350505050565b600082601f83011261103f578081fd5b8135602067ffffffffffffffff82111561105b5761105b611999565b8160051b61106a828201611824565b838152828101908684018388018501891015611084578687fd5b8693505b858410156110a6578035835260019390930192918401918401611088565b50979650505050505050565b60008083601f8401126110c3578182fd5b50813567ffffffffffffffff8111156110da578182fd5b6020830191508360208285010111156110f257600080fd5b9250929050565b600082601f830112611109578081fd5b813561111c61111782611855565b611824565b818152846020838601011115611130578283fd5b816020850160208301379081016020019190915292915050565b60006020828403121561115b578081fd5b8135611166816119af565b9392505050565b60008060008060008060008060c0898b031215611188578384fd5b8835611193816119af565b975060208901356111a3816119af565b965060408901356111b3816119af565b955060608901359450608089013567ffffffffffffffff808211156111d6578586fd5b6111e28c838d016110b2565b909650945060a08b01359150808211156111fa578384fd5b506112078b828c016110b2565b999c989b5096995094979396929594505050565b600080600080600060a08688031215611232578081fd5b853561123d816119af565b9450602086013561124d816119af565b9350604086013567ffffffffffffffff80821115611269578283fd5b61127589838a0161102f565b9450606088013591508082111561128a578283fd5b61129689838a0161102f565b935060808801359150808211156112ab578283fd5b506112b8888289016110f9565b9150509295509295909350565b600080600080600060a086880312156112dc578081fd5b85356112e7816119af565b945060208601356112f7816119af565b93506040860135925060608601359150608086013567ffffffffffffffff811115611320578182fd5b6112b8888289016110f9565b600080600060608486031215611340578283fd5b833561134b816119af565b9250602084013591506040840135611362816119c7565b809150509250925092565b600080600060608486031215611381578283fd5b833561138c816119af565b95602085013595506040909401359392505050565b6000602082840312156113b2578081fd5b8151611166816119c7565b6000602082840312156113ce578081fd5b81356001600160e01b031981168114611166578182fd5b6000602082840312156113f6578081fd5b815167ffffffffffffffff81111561140c578182fd5b8201601f8101841361141c578182fd5b805161142a61111782611855565b81815285602083850101111561143e578384fd5b61144f826020830160208601611957565b95945050505050565b600080600080600080600060a0888a031215611472578081fd5b873561147d816119af565b9650602088013561148d816119af565b955060408801359450606088013567ffffffffffffffff808211156114b0578283fd5b6114bc8b838c016110b2565b909650945060808a01359150808211156114d4578283fd5b506114e18a828b016110b2565b989b979a50959850939692959293505050565b600080600080600080600080600060c08a8c031215611511578283fd5b893561151c816119af565b985060208a013561152c816119af565b975060408a0135965060608a013567ffffffffffffffff8082111561154f578485fd5b61155b8d838e016110b2565b909850965060808c0135915080821115611573578485fd5b61157f8d838e016110b2565b909650945060a08c0135915080821115611597578283fd5b506115a48c828d016110b2565b915080935050809150509295985092959850929598565b6000602082840312156115cc578081fd5b5051919050565b600080604083850312156115e5578182fd5b8235915060208301356115f7816119af565b809150509250929050565b6000806000806000806000806000806101408b8d031215611621578384fd5b8a51995060208b0151985060408b0151975060608b0151965060808b0151955060a08b0151945060c08b0151935060e08b015192506101008b015191506101208b015164ffffffffff81168114611676578182fd5b809150509295989b9194979a5092959850565b81835281816020850137506000828201602090810191909152601f909101601f19169091010190565b600081518084526116ca816020860160208601611957565b601f01601f19169290920160200192915050565b600082516116f0818460208701611957565b9190910192915050565b6001600160a01b0389811682528881166020830152871660408201526060810186905260c0608082018190526000906117369083018688611689565b82810360a0840152611749818587611689565b9b9a5050505050505050505050565b6001600160a01b03868116825285166020820152604081018490526060810183905260a060808201819052600090611792908301846116b2565b979650505050505050565b60208152600061116660208301846116b2565b6001600160a01b0385811682528481166020830152831660408201526080606082018190526000906117e4908301846116b2565b9695505050505050565b6001600160a01b03858116825284166020820152600b83900b60408201526080606082018190526000906117e4908301846116b2565b604051601f8201601f1916810167ffffffffffffffff8111828210171561184d5761184d611999565b604052919050565b600067ffffffffffffffff82111561186f5761186f611999565b50601f01601f191660200190565b6000821982111561189057611890611983565b500190565b6000826118b057634e487b7160e01b81526012600452602481fd5b500490565b60006001600160ff1b03818413828413808216868404861116156118db576118db611983565b600160ff1b848712828116878305891216156118f9576118f9611983565b85871292508782058712848416161561191457611914611983565b8785058712818416161561192a5761192a611983565b505050929093029392505050565b600081600019048311821515161561195257611952611983565b500290565b60005b8381101561197257818101518382015260200161195a565b83811115610d425750506000910152565b634e487b7160e01b600052601160045260246000fd5b634e487b7160e01b600052604160045260246000fd5b6001600160a01b03811681146119c457600080fd5b50565b80151581146119c457600080fdfea26469706673582212202257d9ae79a59b213b134ac613b7a83fef14edce5e0299ac4d90ede2551ccbb564736f6c63430008040033",
  "devdoc": {
    "details": "comments",
    "kind": "dev",
    "methods": {
      "approveBorrower(address,uint256,uint256)": {
        "params": {
          "amount": "The amount the borrower is allowed to borrow (i.e. their line of credit)  Add permissions to this call, e.g. only the owner should be able to approve borrowers!",
          "borrower": "The borrower of the funds (i.e. delgatee)"
        }
      },
      "depositCollateral(address,uint256,bool)": {
        "params": {
          "amount": "The amount to be deposited as collateral",
          "asset": "The asset to be deposited as collateral",
          "isPull": "Whether to pull the funds from the caller, or use funds sent to this contract  User must have approved this contract to pull funds if `isPull` = true "
        }
      },
      "repayBorrower(uint256,address)": {
        "params": {
          "amount": "The amount to repay",
          "asset": "The asset to be repaid  User calling this function must have approved this contract with an allowance to transfer the tokens  You should keep internal accounting of borrowers, if your contract will have multiple borrowers"
        }
      },
      "supportsInterface(bytes4)": {
        "details": "See {IERC165-supportsInterface}."
      },
      "tokensReceived(address,address,address,uint256,bytes,bytes)": {
        "details": "Called by an {IERC777} token contract whenever tokens are being moved or created into a registered account (`to`). The type of operation is conveyed by `from` being the zero address or not. This call occurs _after_ the token contract's state is updated, so {IERC777-balanceOf}, etc., can be used to query the post-operation state. This function may revert to prevent the operation from being executed."
      }
    },
    "version": 1
  },
  "userdoc": {
    "kind": "user",
    "methods": {
      "approveBorrower(address,uint256,uint256)": {
        "notice": "Approves the borrower to take an uncollaterised loan"
      },
      "depositCollateral(address,uint256,bool)": {
        "notice": "Deposits collateral into the Aave, to enable credit delegation This would be called by the delegator."
      },
      "repayBorrower(uint256,address)": {
        "notice": "Repay an uncollaterised loan"
      },
      "withdrawCollateral()": {
        "notice": "Withdraw all of a collateral as the underlying asset, if no outstanding loans delegated  Add permissions to this call, e.g. only the owner should be able to withdraw the collateral!"
      }
    },
    "notice": "This is a proof of concept starter contract, showing how uncollaterised loans are possible using Aave v2 credit delegation. This example supports stable interest rate borrows. It is not production ready (!). User permissions and user accounting of loans should be implemented.",
    "version": 1
  },
  "storageLayout": {
    "storage": [
      {
        "astId": 5218,
        "contract": "contracts/LendingPool/LendingPoolDF.sol:LendingPoolDF",
        "label": "_erc1820",
        "offset": 0,
        "slot": "0",
        "type": "t_contract(IERC1820Registry)2670"
      },
      {
        "astId": 6394,
        "contract": "contracts/LendingPool/LendingPoolDF.sol:LendingPoolDF",
        "label": "name",
        "offset": 0,
        "slot": "1",
        "type": "t_string_storage"
      },
      {
        "astId": 6399,
        "contract": "contracts/LendingPool/LendingPoolDF.sol:LendingPoolDF",
        "label": "RAY1",
        "offset": 0,
        "slot": "2",
        "type": "t_uint256"
      },
      {
        "astId": 6404,
        "contract": "contracts/LendingPool/LendingPoolDF.sol:LendingPoolDF",
        "label": "RAY2",
        "offset": 0,
        "slot": "3",
        "type": "t_uint256"
      },
      {
        "astId": 6408,
        "contract": "contracts/LendingPool/LendingPoolDF.sol:LendingPoolDF",
        "label": "deposited",
        "offset": 0,
        "slot": "4",
        "type": "t_mapping(t_address,t_uint256)"
      },
      {
        "astId": 6411,
        "contract": "contracts/LendingPool/LendingPoolDF.sol:LendingPoolDF",
        "label": "USDC",
        "offset": 0,
        "slot": "5",
        "type": "t_address"
      },
      {
        "astId": 6414,
        "contract": "contracts/LendingPool/LendingPoolDF.sol:LendingPoolDF",
        "label": "sUSDC",
        "offset": 0,
        "slot": "6",
        "type": "t_address"
      },
      {
        "astId": 6417,
        "contract": "contracts/LendingPool/LendingPoolDF.sol:LendingPoolDF",
        "label": "aUSDC",
        "offset": 0,
        "slot": "7",
        "type": "t_address"
      },
      {
        "astId": 6423,
        "contract": "contracts/LendingPool/LendingPoolDF.sol:LendingPoolDF",
        "label": "lendingPool",
        "offset": 0,
        "slot": "8",
        "type": "t_contract(ILendingPool)6202"
      },
      {
        "astId": 6429,
        "contract": "contracts/LendingPool/LendingPoolDF.sol:LendingPoolDF",
        "label": "DataProvider",
        "offset": 0,
        "slot": "9",
        "type": "t_contract(IProtocolDataProvider)5569"
      },
      {
        "astId": 6435,
        "contract": "contracts/LendingPool/LendingPoolDF.sol:LendingPoolDF",
        "label": "CFA",
        "offset": 0,
        "slot": "10",
        "type": "t_contract(IConstantFlowAgreementV1)2989"
      },
      {
        "astId": 6441,
        "contract": "contracts/LendingPool/LendingPoolDF.sol:LendingPoolDF",
        "label": "host",
        "offset": 0,
        "slot": "11",
        "type": "t_contract(ISuperfluid)4333"
      },
      {
        "astId": 6444,
        "contract": "contracts/LendingPool/LendingPoolDF.sol:LendingPoolDF",
        "label": "SDT",
        "offset": 0,
        "slot": "12",
        "type": "t_contract(ISDT)6380"
      },
      {
        "astId": 6447,
        "contract": "contracts/LendingPool/LendingPoolDF.sol:LendingPoolDF",
        "label": "cashflowTokens",
        "offset": 0,
        "slot": "13",
        "type": "t_contract(CashflowTokens)5145"
      },
      {
        "astId": 6449,
        "contract": "contracts/LendingPool/LendingPoolDF.sol:LendingPoolDF",
        "label": "owner",
        "offset": 0,
        "slot": "14",
        "type": "t_address"
      }
    ],
    "types": {
      "t_address": {
        "encoding": "inplace",
        "label": "address",
        "numberOfBytes": "20"
      },
      "t_contract(CashflowTokens)5145": {
        "encoding": "inplace",
        "label": "contract CashflowTokens",
        "numberOfBytes": "20"
      },
      "t_contract(IConstantFlowAgreementV1)2989": {
        "encoding": "inplace",
        "label": "contract IConstantFlowAgreementV1",
        "numberOfBytes": "20"
      },
      "t_contract(IERC1820Registry)2670": {
        "encoding": "inplace",
        "label": "contract IERC1820Registry",
        "numberOfBytes": "20"
      },
      "t_contract(ILendingPool)6202": {
        "encoding": "inplace",
        "label": "contract ILendingPool",
        "numberOfBytes": "20"
      },
      "t_contract(IProtocolDataProvider)5569": {
        "encoding": "inplace",
        "label": "contract IProtocolDataProvider",
        "numberOfBytes": "20"
      },
      "t_contract(ISDT)6380": {
        "encoding": "inplace",
        "label": "contract ISDT",
        "numberOfBytes": "20"
      },
      "t_contract(ISuperfluid)4333": {
        "encoding": "inplace",
        "label": "contract ISuperfluid",
        "numberOfBytes": "20"
      },
      "t_mapping(t_address,t_uint256)": {
        "encoding": "mapping",
        "key": "t_address",
        "label": "mapping(address => uint256)",
        "numberOfBytes": "32",
        "value": "t_uint256"
      },
      "t_string_storage": {
        "encoding": "bytes",
        "label": "string",
        "numberOfBytes": "32"
      },
      "t_uint256": {
        "encoding": "inplace",
        "label": "uint256",
        "numberOfBytes": "32"
      }
    }
  }
}