{
  "address": "0x5654740BF119bdC3214485e82D73358E56d7B759",
  "abi": [
    {
      "inputs": [
        {
          "internalType": "address[]",
          "name": "_owners",
          "type": "address[]"
        },
        {
          "internalType": "uint256",
          "name": "_required",
          "type": "uint256"
        },
        {
          "internalType": "contract CashflowTokens",
          "name": "_cashflowTokens",
          "type": "address"
        }
      ],
      "stateMutability": "nonpayable",
      "type": "constructor"
    },
    {
      "anonymous": false,
      "inputs": [
        {
          "indexed": true,
          "internalType": "address",
          "name": "sender",
          "type": "address"
        },
        {
          "indexed": true,
          "internalType": "uint256",
          "name": "transactionId",
          "type": "uint256"
        }
      ],
      "name": "Confirmation",
      "type": "event"
    },
    {
      "anonymous": false,
      "inputs": [
        {
          "indexed": true,
          "internalType": "address",
          "name": "sender",
          "type": "address"
        },
        {
          "indexed": false,
          "internalType": "uint256",
          "name": "value",
          "type": "uint256"
        }
      ],
      "name": "Deposit",
      "type": "event"
    },
    {
      "anonymous": false,
      "inputs": [
        {
          "indexed": true,
          "internalType": "uint256",
          "name": "transactionId",
          "type": "uint256"
        }
      ],
      "name": "Execution",
      "type": "event"
    },
    {
      "anonymous": false,
      "inputs": [
        {
          "indexed": true,
          "internalType": "uint256",
          "name": "transactionId",
          "type": "uint256"
        }
      ],
      "name": "ExecutionFailure",
      "type": "event"
    },
    {
      "anonymous": false,
      "inputs": [
        {
          "indexed": true,
          "internalType": "address",
          "name": "owner",
          "type": "address"
        }
      ],
      "name": "OwnerAddition",
      "type": "event"
    },
    {
      "anonymous": false,
      "inputs": [
        {
          "indexed": true,
          "internalType": "address",
          "name": "owner",
          "type": "address"
        }
      ],
      "name": "OwnerRemoval",
      "type": "event"
    },
    {
      "anonymous": false,
      "inputs": [
        {
          "indexed": true,
          "internalType": "address",
          "name": "sender",
          "type": "address"
        },
        {
          "indexed": true,
          "internalType": "uint256",
          "name": "transactionId",
          "type": "uint256"
        }
      ],
      "name": "Rejection",
      "type": "event"
    },
    {
      "anonymous": false,
      "inputs": [
        {
          "indexed": false,
          "internalType": "uint256",
          "name": "required",
          "type": "uint256"
        }
      ],
      "name": "RequirementChange",
      "type": "event"
    },
    {
      "anonymous": false,
      "inputs": [
        {
          "indexed": true,
          "internalType": "address",
          "name": "sender",
          "type": "address"
        },
        {
          "indexed": true,
          "internalType": "uint256",
          "name": "transactionId",
          "type": "uint256"
        }
      ],
      "name": "Revocation",
      "type": "event"
    },
    {
      "anonymous": false,
      "inputs": [
        {
          "indexed": true,
          "internalType": "uint256",
          "name": "transactionId",
          "type": "uint256"
        }
      ],
      "name": "Submission",
      "type": "event"
    },
    {
      "anonymous": false,
      "inputs": [
        {
          "indexed": true,
          "internalType": "address",
          "name": "supplier",
          "type": "address"
        }
      ],
      "name": "SupplierAddition",
      "type": "event"
    },
    {
      "anonymous": false,
      "inputs": [
        {
          "indexed": true,
          "internalType": "address",
          "name": "supplier",
          "type": "address"
        }
      ],
      "name": "SupplierRemoval",
      "type": "event"
    },
    {
      "inputs": [],
      "name": "MAX_OWNER_COUNT",
      "outputs": [
        {
          "internalType": "uint256",
          "name": "",
          "type": "uint256"
        }
      ],
      "stateMutability": "view",
      "type": "function"
    },
    {
      "inputs": [
        {
          "internalType": "address",
          "name": "owner",
          "type": "address"
        }
      ],
      "name": "addOwner",
      "outputs": [],
      "stateMutability": "nonpayable",
      "type": "function"
    },
    {
      "inputs": [
        {
          "internalType": "address",
          "name": "supplier",
          "type": "address"
        }
      ],
      "name": "addSupplier",
      "outputs": [],
      "stateMutability": "nonpayable",
      "type": "function"
    },
    {
      "inputs": [
        {
          "internalType": "uint256",
          "name": "_required",
          "type": "uint256"
        }
      ],
      "name": "changeRequirement",
      "outputs": [],
      "stateMutability": "nonpayable",
      "type": "function"
    },
    {
      "inputs": [
        {
          "internalType": "uint256",
          "name": "transactionId",
          "type": "uint256"
        }
      ],
      "name": "confirmTransaction",
      "outputs": [],
      "stateMutability": "nonpayable",
      "type": "function"
    },
    {
      "inputs": [
        {
          "internalType": "uint256",
          "name": "",
          "type": "uint256"
        },
        {
          "internalType": "address",
          "name": "",
          "type": "address"
        }
      ],
      "name": "decisions",
      "outputs": [
        {
          "internalType": "enum MultiSigWallet.decision",
          "name": "",
          "type": "uint8"
        }
      ],
      "stateMutability": "view",
      "type": "function"
    },
    {
      "inputs": [
        {
          "internalType": "uint256",
          "name": "transactionId",
          "type": "uint256"
        }
      ],
      "name": "executeRejection",
      "outputs": [],
      "stateMutability": "nonpayable",
      "type": "function"
    },
    {
      "inputs": [
        {
          "internalType": "uint256",
          "name": "transactionId",
          "type": "uint256"
        }
      ],
      "name": "executeTransaction",
      "outputs": [],
      "stateMutability": "nonpayable",
      "type": "function"
    },
    {
      "inputs": [],
      "name": "getAllTransactions",
      "outputs": [
        {
          "components": [
            {
              "internalType": "string",
              "name": "invoiceHash",
              "type": "string"
            },
            {
              "internalType": "string",
              "name": "legalContractHash",
              "type": "string"
            },
            {
              "internalType": "address",
              "name": "anchor",
              "type": "address"
            },
            {
              "internalType": "address",
              "name": "supplier",
              "type": "address"
            },
            {
              "internalType": "uint256",
              "name": "invoiceAmount",
              "type": "uint256"
            },
            {
              "internalType": "uint256",
              "name": "paymentDate",
              "type": "uint256"
            },
            {
              "internalType": "enum MultiSigWallet.decision",
              "name": "status",
              "type": "uint8"
            }
          ],
          "internalType": "struct MultiSigWallet.Transaction[]",
          "name": "",
          "type": "tuple[]"
        }
      ],
      "stateMutability": "view",
      "type": "function"
    },
    {
      "inputs": [
        {
          "internalType": "uint256",
          "name": "transactionId",
          "type": "uint256"
        }
      ],
      "name": "getConfirmationCount",
      "outputs": [
        {
          "internalType": "uint256",
          "name": "count",
          "type": "uint256"
        }
      ],
      "stateMutability": "view",
      "type": "function"
    },
    {
      "inputs": [
        {
          "internalType": "uint256",
          "name": "transactionId",
          "type": "uint256"
        }
      ],
      "name": "getConfirmations",
      "outputs": [
        {
          "internalType": "address[]",
          "name": "_decisions",
          "type": "address[]"
        }
      ],
      "stateMutability": "view",
      "type": "function"
    },
    {
      "inputs": [],
      "name": "getOwners",
      "outputs": [
        {
          "internalType": "address[]",
          "name": "",
          "type": "address[]"
        }
      ],
      "stateMutability": "view",
      "type": "function"
    },
    {
      "inputs": [],
      "name": "getSuppliers",
      "outputs": [
        {
          "internalType": "address[]",
          "name": "",
          "type": "address[]"
        }
      ],
      "stateMutability": "view",
      "type": "function"
    },
    {
      "inputs": [
        {
          "internalType": "enum MultiSigWallet.decision",
          "name": "status",
          "type": "uint8"
        }
      ],
      "name": "getTransactionCount",
      "outputs": [
        {
          "internalType": "uint256",
          "name": "count",
          "type": "uint256"
        }
      ],
      "stateMutability": "view",
      "type": "function"
    },
    {
      "inputs": [
        {
          "internalType": "uint256",
          "name": "from",
          "type": "uint256"
        },
        {
          "internalType": "uint256",
          "name": "to",
          "type": "uint256"
        },
        {
          "internalType": "enum MultiSigWallet.decision",
          "name": "status",
          "type": "uint8"
        }
      ],
      "name": "getTransactionIds",
      "outputs": [
        {
          "internalType": "uint256[]",
          "name": "_transactionIds",
          "type": "uint256[]"
        }
      ],
      "stateMutability": "view",
      "type": "function"
    },
    {
      "inputs": [
        {
          "internalType": "uint256",
          "name": "transactionId",
          "type": "uint256"
        }
      ],
      "name": "isConfirmed",
      "outputs": [
        {
          "internalType": "bool",
          "name": "",
          "type": "bool"
        }
      ],
      "stateMutability": "view",
      "type": "function"
    },
    {
      "inputs": [
        {
          "internalType": "address",
          "name": "",
          "type": "address"
        }
      ],
      "name": "isOwner",
      "outputs": [
        {
          "internalType": "bool",
          "name": "",
          "type": "bool"
        }
      ],
      "stateMutability": "view",
      "type": "function"
    },
    {
      "inputs": [
        {
          "internalType": "uint256",
          "name": "transactionId",
          "type": "uint256"
        }
      ],
      "name": "isRejected",
      "outputs": [
        {
          "internalType": "bool",
          "name": "",
          "type": "bool"
        }
      ],
      "stateMutability": "view",
      "type": "function"
    },
    {
      "inputs": [
        {
          "internalType": "address",
          "name": "",
          "type": "address"
        }
      ],
      "name": "isSupplier",
      "outputs": [
        {
          "internalType": "bool",
          "name": "",
          "type": "bool"
        }
      ],
      "stateMutability": "view",
      "type": "function"
    },
    {
      "inputs": [
        {
          "internalType": "uint256",
          "name": "",
          "type": "uint256"
        }
      ],
      "name": "owners",
      "outputs": [
        {
          "internalType": "address",
          "name": "",
          "type": "address"
        }
      ],
      "stateMutability": "view",
      "type": "function"
    },
    {
      "inputs": [
        {
          "internalType": "uint256",
          "name": "transactionId",
          "type": "uint256"
        }
      ],
      "name": "rejectTransaction",
      "outputs": [],
      "stateMutability": "nonpayable",
      "type": "function"
    },
    {
      "inputs": [
        {
          "internalType": "address",
          "name": "owner",
          "type": "address"
        }
      ],
      "name": "removeOwner",
      "outputs": [],
      "stateMutability": "nonpayable",
      "type": "function"
    },
    {
      "inputs": [
        {
          "internalType": "address",
          "name": "supplier",
          "type": "address"
        }
      ],
      "name": "removeSupplier",
      "outputs": [],
      "stateMutability": "nonpayable",
      "type": "function"
    },
    {
      "inputs": [
        {
          "internalType": "address",
          "name": "owner",
          "type": "address"
        },
        {
          "internalType": "address",
          "name": "newOwner",
          "type": "address"
        }
      ],
      "name": "replaceOwner",
      "outputs": [],
      "stateMutability": "nonpayable",
      "type": "function"
    },
    {
      "inputs": [],
      "name": "required",
      "outputs": [
        {
          "internalType": "uint256",
          "name": "",
          "type": "uint256"
        }
      ],
      "stateMutability": "view",
      "type": "function"
    },
    {
      "inputs": [
        {
          "internalType": "uint256",
          "name": "transactionId",
          "type": "uint256"
        }
      ],
      "name": "revokeDecision",
      "outputs": [],
      "stateMutability": "nonpayable",
      "type": "function"
    },
    {
      "inputs": [
        {
          "internalType": "string",
          "name": "invoiceHash",
          "type": "string"
        },
        {
          "internalType": "string",
          "name": "legalContractHash",
          "type": "string"
        },
        {
          "internalType": "address",
          "name": "anchor",
          "type": "address"
        },
        {
          "internalType": "uint256",
          "name": "invoiceAmount",
          "type": "uint256"
        },
        {
          "internalType": "uint256",
          "name": "paymentDate",
          "type": "uint256"
        }
      ],
      "name": "submitTransaction",
      "outputs": [
        {
          "internalType": "uint256",
          "name": "transactionId",
          "type": "uint256"
        }
      ],
      "stateMutability": "nonpayable",
      "type": "function"
    },
    {
      "inputs": [
        {
          "internalType": "uint256",
          "name": "",
          "type": "uint256"
        }
      ],
      "name": "suppliers",
      "outputs": [
        {
          "internalType": "address",
          "name": "",
          "type": "address"
        }
      ],
      "stateMutability": "view",
      "type": "function"
    },
    {
      "inputs": [],
      "name": "transactionCount",
      "outputs": [
        {
          "internalType": "uint256",
          "name": "",
          "type": "uint256"
        }
      ],
      "stateMutability": "view",
      "type": "function"
    },
    {
      "inputs": [
        {
          "internalType": "uint256",
          "name": "",
          "type": "uint256"
        }
      ],
      "name": "transactions",
      "outputs": [
        {
          "internalType": "string",
          "name": "invoiceHash",
          "type": "string"
        },
        {
          "internalType": "string",
          "name": "legalContractHash",
          "type": "string"
        },
        {
          "internalType": "address",
          "name": "anchor",
          "type": "address"
        },
        {
          "internalType": "address",
          "name": "supplier",
          "type": "address"
        },
        {
          "internalType": "uint256",
          "name": "invoiceAmount",
          "type": "uint256"
        },
        {
          "internalType": "uint256",
          "name": "paymentDate",
          "type": "uint256"
        },
        {
          "internalType": "enum MultiSigWallet.decision",
          "name": "status",
          "type": "uint8"
        }
      ],
      "stateMutability": "view",
      "type": "function"
    },
    {
      "stateMutability": "payable",
      "type": "receive"
    }
  ],
  "transactionHash": "0x442ecc5bf9a4f7827afe2c1213fa327706128378b261d1f538ea848bc837b722",
  "args": [
    [
      "0x3aC9dD168e7Faf91211097E55116008Ce2c222f5"
    ],
    1,
    "0xE076341997771AB62fe184d1101BCd78d18053e2"
  ],
  "solcInputHash": "56e65aeb26df081ffb690a7149abf769",
  "bytecode": "0x60806040523480156200001157600080fd5b5060405162002f1238038062002f12833981016040819052620000349162000268565b82518260328211158015620000495750818111155b80156200005557508015155b80156200006157508115155b6200006b57600080fd5b60005b85518110156200018557600260008783815181106200009d57634e487b7160e01b600052603260045260246000fd5b6020908102919091018101516001600160a01b031682528101919091526040016000205460ff161580156200010d575060006001600160a01b0316868281518110620000f957634e487b7160e01b600052603260045260246000fd5b60200260200101516001600160a01b031614155b6200011757600080fd5b6001600260008884815181106200013e57634e487b7160e01b600052603260045260246000fd5b6020908102919091018101516001600160a01b03168252810191909152604001600020805460ff1916911515919091179055806200017c816200035a565b9150506200006e565b5084516200019b906004906020880190620001ca565b505050600691909155600880546001600160a01b0319166001600160a01b039092169190911790555062000398565b82805482825590600052602060002090810192821562000222579160200282015b828111156200022257825182546001600160a01b0319166001600160a01b03909116178255602090920191600190910190620001eb565b506200023092915062000234565b5090565b5b8082111562000230576000815560010162000235565b80516001600160a01b03811681146200026357600080fd5b919050565b6000806000606084860312156200027d578283fd5b83516001600160401b038082111562000294578485fd5b818601915086601f830112620002a8578485fd5b8151602082821115620002bf57620002bf62000382565b8160051b604051601f19603f83011681018181108682111715620002e757620002e762000382565b604052838152828101945085830182870184018c10156200030657898afd5b8996505b8487101562000333576200031e816200024b565b8652600196909601959483019483016200030a565b5080985050508088015195505050505062000351604085016200024b565b90509250925092565b60006000198214156200037b57634e487b7160e01b81526011600452602481fd5b5060010190565b634e487b7160e01b600052604160045260246000fd5b612b6a80620003a86000396000f3fe6080604052600436106101d15760003560e01c806377af7ade116100f7578063b77bf60011610095578063d74f8edd11610064578063d74f8edd146105eb578063dc8452cd14610600578063e20056e614610616578063ee22610b1461063657600080fd5b8063b77bf60014610575578063ba51a6df1461058b578063c01a8c84146105ab578063cea23121146105cb57600080fd5b80639ace38c2116100d15780639ace38c2146104e05780639ebfddee14610513578063a0e67e2b14610540578063b5dc40c31461055557600080fd5b806377af7ade14610480578063784547a7146104a05780638b51d13f146104c057600080fd5b806327506f531161016f578063463365421161013e57806346336542146103f057806346dce9f1146104205780635e4d18e3146104405780637065cb481461046057600080fd5b806327506f531461034e5780632f54bf6e1461037057806331246b89146103a057806343516832146103ce57600080fd5b8063098f076e116101ab578063098f076e146102be5780630f5f817a146102ee578063173825d91461030e57806317df47451461032e57600080fd5b8063025e7c2714610219578063031fda881461025657806305bf37aa1461029e57600080fd5b366102145734156102125760405134815233907fe1fffcc4923d04b559f4d29a8bfc6cda04eb5b0d3c460751c2402c5c5cc9109c9060200160405180910390a25b005b600080fd5b34801561022557600080fd5b50610239610234366004612736565b610656565b6040516001600160a01b0390911681526020015b60405180910390f35b34801561026257600080fd5b5061029161027136600461274e565b600160209081526000928352604080842090915290825290205460ff1681565b60405161024d9190612968565b3480156102aa57600080fd5b506102126102b9366004612736565b610680565b3480156102ca57600080fd5b506102de6102d9366004612736565b6106d7565b604051901515815260200161024d565b3480156102fa57600080fd5b50610212610309366004612626565b6107a6565b34801561031a57600080fd5b50610212610329366004612626565b6109cd565b34801561033a57600080fd5b50610212610349366004612626565b610bcf565b34801561035a57600080fd5b50610363610d54565b60405161024d919061285e565b34801561037c57600080fd5b506102de61038b366004612626565b60026020526000908152604090205460ff1681565b3480156103ac57600080fd5b506103c06103bb366004612699565b610fcd565b60405190815260200161024d565b3480156103da57600080fd5b506103e3611055565b60405161024d9190612811565b3480156103fc57600080fd5b506102de61040b366004612626565b60036020526000908152604090205460ff1681565b34801561042c57600080fd5b5061021261043b366004612736565b6110b7565b34801561044c57600080fd5b5061021261045b366004612736565b6111db565b34801561046c57600080fd5b5061021261047b366004612626565b61132d565b34801561048c57600080fd5b506103c061049b3660046126b3565b6114ad565b3480156104ac57600080fd5b506102de6104bb366004612736565b611524565b3480156104cc57600080fd5b506103c06104db366004612736565b6115e9565b3480156104ec57600080fd5b506105006104fb366004612736565b611699565b60405161024d97969594939291906129d0565b34801561051f57600080fd5b5061053361052e366004612770565b6117f4565b60405161024d9190612930565b34801561054c57600080fd5b506103e36119e3565b34801561056157600080fd5b506103e3610570366004612736565b611a43565b34801561058157600080fd5b506103c060075481565b34801561059757600080fd5b506102126105a6366004612736565b611c9f565b3480156105b757600080fd5b506102126105c6366004612736565b611d1c565b3480156105d757600080fd5b506102396105e6366004612736565b611d72565b3480156105f757600080fd5b506103c0603281565b34801561060c57600080fd5b506103c060065481565b34801561062257600080fd5b50610212610631366004612647565b611d82565b34801561064257600080fd5b50610212610651366004612736565b611f76565b6004818154811061066657600080fd5b6000918252602090912001546001600160a01b0316905081565b6000818152600160209081526040808320338085529252808320805460ff191660021790555183927f310fda14a1b3763badba87b2ca73948d00cc14d8fa2d6ee19a67ac90fa9afa6791a36106d4816110b7565b50565b600080805b60045481101561079c5760026000858152600160205260408120600480549192918590811061071b57634e487b7160e01b600052603260045260246000fd5b60009182526020808320909101546001600160a01b0316835282019290925260400190205460ff16600281111561076257634e487b7160e01b600052602160045260246000fd5b141561077657610773600183612a89565b91505b60065482141561078a575060019392505050565b8061079481612aed565b9150506106dc565b5060009392505050565b6001600160a01b038116600090815260036020526040902054819060ff166108115760405162461bcd60e51b815260206004820152601960248201527820b2323932b9b99034b9903737ba10309039bab8383634b2b960391b60448201526064015b60405180910390fd5b6001600160a01b0382166000908152600360205260408120805460ff191690555b60055461084190600190612aa1565b81101561093b57826001600160a01b03166005828154811061087357634e487b7160e01b600052603260045260246000fd5b6000918252602090912001546001600160a01b03161415610929576005805461089e90600190612aa1565b815481106108bc57634e487b7160e01b600052603260045260246000fd5b600091825260209091200154600580546001600160a01b0390921691839081106108f657634e487b7160e01b600052603260045260246000fd5b9060005260206000200160006101000a8154816001600160a01b0302191690836001600160a01b0316021790555061093b565b8061093381612aed565b915050610832565b50600580548061095b57634e487b7160e01b600052603160045260246000fd5b600082815260209020810160001990810180546001600160a01b031916905501905560055460065411156109955760055461099590611c9f565b6040516001600160a01b038316907feff77ad4786c56672b3d97fd4c375ff7b16f04e9b070a6ffed49da1572b300e490600090a25050565b3330146109d957600080fd5b6001600160a01b038116600090815260026020526040902054819060ff16610a135760405162461bcd60e51b815260040161080890612a2b565b6001600160a01b0382166000908152600260205260408120805460ff191690555b600454610a4390600190612aa1565b811015610b3d57826001600160a01b031660048281548110610a7557634e487b7160e01b600052603260045260246000fd5b6000918252602090912001546001600160a01b03161415610b2b5760048054610aa090600190612aa1565b81548110610abe57634e487b7160e01b600052603260045260246000fd5b600091825260209091200154600480546001600160a01b039092169183908110610af857634e487b7160e01b600052603260045260246000fd5b9060005260206000200160006101000a8154816001600160a01b0302191690836001600160a01b03160217905550610b3d565b80610b3581612aed565b915050610a34565b506004805480610b5d57634e487b7160e01b600052603160045260246000fd5b600082815260209020810160001990810180546001600160a01b03191690550190556004546006541115610b9757600454610b9790611c9f565b6040516001600160a01b038316907f8001553a916ef2f495d26a907cc54d96ed840d7bda71e73194bf5a9df7a76b9090600090a25050565b6001600160a01b038116600090815260036020526040902054819060ff1615610c3a5760405162461bcd60e51b815260206004820152601d60248201527f4164647265737320697320616c7265616479206120737570706c6965720000006044820152606401610808565b816001600160a01b038116610c835760405162461bcd60e51b815260206004820152600f60248201526e1059191c995cdcc81a5cc81b9d5b1b608a1b6044820152606401610808565b600554610c91906001612a89565b60065460328211158015610ca55750818111155b8015610cb057508015155b8015610cbb57508115155b610cc457600080fd5b6001600160a01b038516600081815260036020526040808220805460ff1916600190811790915560058054918201815583527f036b6384b5eca791c62761152d0c79bb0604c104a5fb6f4eb0703f3154bb3db00180546001600160a01b03191684179055517f832bbe32e7c8fcebb79f2b495d2342d4aee6ad7411ee0aae797a49ff22e44f179190a25050505050565b6060600060075467ffffffffffffffff811115610d8157634e487b7160e01b600052604160045260246000fd5b604051908082528060200260200182016040528015610dba57816020015b610da761246e565b815260200190600190039081610d9f5790505b50905060005b600754811015610fc75760008181526020819052604090819020815160e08101909252805482908290610df290612ab8565b80601f0160208091040260200160405190810160405280929190818152602001828054610e1e90612ab8565b8015610e6b5780601f10610e4057610100808354040283529160200191610e6b565b820191906000526020600020905b815481529060010190602001808311610e4e57829003601f168201915b50505050508152602001600182018054610e8490612ab8565b80601f0160208091040260200160405190810160405280929190818152602001828054610eb090612ab8565b8015610efd5780601f10610ed257610100808354040283529160200191610efd565b820191906000526020600020905b815481529060010190602001808311610ee057829003601f168201915b50505091835250506002828101546001600160a01b03908116602084015260038401541660408301526004830154606083015260058301546080830152600683015460a09092019160ff1690811115610f6657634e487b7160e01b600052602160045260246000fd5b6002811115610f8557634e487b7160e01b600052602160045260246000fd5b81525050828281518110610fa957634e487b7160e01b600052603260045260246000fd5b60200260200101819052508080610fbf90612aed565b915050610dc0565b50919050565b6000805b600754811015610fc757826002811115610ffb57634e487b7160e01b600052602160045260246000fd5b60008281526020819052604090206006015460ff16600281111561102f57634e487b7160e01b600052602160045260246000fd5b141561104357611040600183612a89565b91505b8061104d81612aed565b915050610fd1565b606060058054806020026020016040519081016040528092919081815260200182805480156110ad57602002820191906000526020600020905b81546001600160a01b0316815260019091019060200180831161108f575b5050505050905090565b8033600260008381526001602090815260408083206001600160a01b038616845290915290205460ff16600281111561110057634e487b7160e01b600052602160045260246000fd5b1461114d5760405162461bcd60e51b815260206004820152601760248201527f5468652074786e206973206e6f742072656a65637465640000000000000000006044820152606401610808565b826000808281526020819052604090206006015460ff16600281111561118357634e487b7160e01b600052602160045260246000fd5b146111a05760405162461bcd60e51b815260040161080890612a5b565b6111a9846106d7565b156111d55760008481526020819052604090206006810180546002919060ff19166001835b0217905550505b50505050565b3360008181526002602052604090205460ff1661120a5760405162461bcd60e51b815260040161080890612a2b565b600082815260016020908152604080832033808552925282205484929060ff16600281111561124957634e487b7160e01b600052602160045260246000fd5b141561128b5760405162461bcd60e51b81526020600482015260116024820152702737903232b1b4b9b4b7b7103a30b5b2b760791b6044820152606401610808565b836000808281526020819052604090206006015460ff1660028111156112c157634e487b7160e01b600052602160045260246000fd5b146112de5760405162461bcd60e51b815260040161080890612a5b565b6000858152600160209081526040808320338085529252808320805460ff191690555187927ff6a317157440607f36269043eb55f1287a5a19ba2216afeab88cd46cbcfb88e991a35050505050565b33301461133957600080fd5b6001600160a01b038116600090815260026020526040902054819060ff16156113935760405162461bcd60e51b815260206004820152600c60248201526b4f776e65722045786973747360a01b6044820152606401610808565b816001600160a01b0381166113dc5760405162461bcd60e51b815260206004820152600f60248201526e1059191c995cdcc81a5cc81b9d5b1b608a1b6044820152606401610808565b6004546113ea906001612a89565b600654603282111580156113fe5750818111155b801561140957508015155b801561141457508115155b61141d57600080fd5b6001600160a01b038516600081815260026020526040808220805460ff1916600190811790915560048054918201815583527f8a35acfbc15ff81a39ae7d344fd709f28e8600b4aa8c65c6b64bfe7fe36bd19b0180546001600160a01b03191684179055517ff39e6e1eb0edcf53c221607b54b00cd28f3196fed0a24994dc308b8f611b682d9190a25050505050565b3360008181526003602052604081205490919060ff1661150b5760405162461bcd60e51b815260206004820152601960248201527820b2323932b9b99034b9903737ba10309039bab8383634b2b960391b6044820152606401610808565b61151987878733888861224d565b979650505050505050565b600080805b60045481101561079c5760016000858152600160205260408120600480549192918590811061156857634e487b7160e01b600052603260045260246000fd5b60009182526020808320909101546001600160a01b0316835282019290925260400190205460ff1660028111156115af57634e487b7160e01b600052602160045260246000fd5b14156115c3576115c0600183612a89565b91505b6006548214156115d7575060019392505050565b806115e181612aed565b915050611529565b6000805b600454811015610fc75760016000848152600160205260408120600480549192918590811061162c57634e487b7160e01b600052603260045260246000fd5b60009182526020808320909101546001600160a01b0316835282019290925260400190205460ff16600281111561167357634e487b7160e01b600052602160045260246000fd5b141561168757611684600183612a89565b91505b8061169181612aed565b9150506115ed565b6000602081905290815260409020805481906116b490612ab8565b80601f01602080910402602001604051908101604052809291908181526020018280546116e090612ab8565b801561172d5780601f106117025761010080835404028352916020019161172d565b820191906000526020600020905b81548152906001019060200180831161171057829003601f168201915b50505050509080600101805461174290612ab8565b80601f016020809104026020016040519081016040528092919081815260200182805461176e90612ab8565b80156117bb5780601f10611790576101008083540402835291602001916117bb565b820191906000526020600020905b81548152906001019060200180831161179e57829003601f168201915b505050600284015460038501546004860154600587015460069097015495966001600160a01b0393841696929093169450925060ff1687565b6060600060075467ffffffffffffffff81111561182157634e487b7160e01b600052604160045260246000fd5b60405190808252806020026020018201604052801561184a578160200160208202803683370190505b5090506000805b6007548110156119015784600281111561187b57634e487b7160e01b600052602160045260246000fd5b60008281526020819052604090206006015460ff1660028111156118af57634e487b7160e01b600052602160045260246000fd5b14156118ef57808383815181106118d657634e487b7160e01b600052603260045260246000fd5b60209081029190910101526118ec600183612a89565b91505b806118f981612aed565b915050611851565b61190b8787612aa1565b67ffffffffffffffff81111561193157634e487b7160e01b600052604160045260246000fd5b60405190808252806020026020018201604052801561195a578160200160208202803683370190505b5093508690505b858110156119d95782818151811061198957634e487b7160e01b600052603260045260246000fd5b602002602001015184888361199e9190612aa1565b815181106119bc57634e487b7160e01b600052603260045260246000fd5b6020908102919091010152806119d181612aed565b915050611961565b5050509392505050565b606060048054806020026020016040519081016040528092919081815260200182805480156110ad576020028201919060005260206000209081546001600160a01b0316815260019091019060200180831161108f575050505050905090565b60045460609060009067ffffffffffffffff811115611a7257634e487b7160e01b600052604160045260246000fd5b604051908082528060200260200182016040528015611a9b578160200160208202803683370190505b5090506000805b600454811015611bc557600160008681526001602052604081206004805491929185908110611ae157634e487b7160e01b600052603260045260246000fd5b60009182526020808320909101546001600160a01b0316835282019290925260400190205460ff166002811115611b2857634e487b7160e01b600052602160045260246000fd5b1415611bb35760048181548110611b4f57634e487b7160e01b600052603260045260246000fd5b9060005260206000200160009054906101000a90046001600160a01b0316838381518110611b8d57634e487b7160e01b600052603260045260246000fd5b6001600160a01b0390921660209283029190910190910152611bb0600183612a89565b91505b80611bbd81612aed565b915050611aa2565b8167ffffffffffffffff811115611bec57634e487b7160e01b600052604160045260246000fd5b604051908082528060200260200182016040528015611c15578160200160208202803683370190505b509350600090505b81811015611c9757828181518110611c4557634e487b7160e01b600052603260045260246000fd5b6020026020010151848281518110611c6d57634e487b7160e01b600052603260045260246000fd5b6001600160a01b039092166020928302919091019091015280611c8f81612aed565b915050611c1d565b505050919050565b333014611cab57600080fd5b6004548160328211801590611cc05750818111155b8015611ccb57508015155b8015611cd657508115155b611cdf57600080fd5b60068390556040518381527fa3f1ee9126a074d9326c682f561767f710e927faa811f7a99829d49dc421797a9060200160405180910390a1505050565b6000818152600160208181526040808420338086529252808420805460ff1916909317909255905183927f4a504a94899432a9846e1aa406dceb1bcfd538bb839071d49d1e5e23f5be30ef91a36106d481611f76565b6005818154811061066657600080fd5b333014611d8e57600080fd5b6001600160a01b038216600090815260026020526040902054829060ff16611dc85760405162461bcd60e51b815260040161080890612a2b565b6001600160a01b038216600090815260026020526040902054829060ff1615611e225760405162461bcd60e51b815260206004820152600c60248201526b4f776e65722045786973747360a01b6044820152606401610808565b60005b600454811015611edc57846001600160a01b031660048281548110611e5a57634e487b7160e01b600052603260045260246000fd5b6000918252602090912001546001600160a01b03161415611eca578360048281548110611e9757634e487b7160e01b600052603260045260246000fd5b9060005260206000200160006101000a8154816001600160a01b0302191690836001600160a01b03160217905550611edc565b80611ed481612aed565b915050611e25565b506001600160a01b03808516600081815260026020526040808220805460ff1990811690915593871682528082208054909416600117909355915190917f8001553a916ef2f495d26a907cc54d96ed840d7bda71e73194bf5a9df7a76b9091a26040516001600160a01b038416907ff39e6e1eb0edcf53c221607b54b00cd28f3196fed0a24994dc308b8f611b682d90600090a250505050565b8033600160008381526001602090815260408083206001600160a01b038616845290915290205460ff166002811115611fbf57634e487b7160e01b600052602160045260246000fd5b1461200c5760405162461bcd60e51b815260206004820152601860248201527f5468652074786e206973206e6f7420636f6e6669726d656400000000000000006044820152606401610808565b826000808281526020819052604090206006015460ff16600281111561204257634e487b7160e01b600052602160045260246000fd5b1461205f5760405162461bcd60e51b815260040161080890612a5b565b61206884611524565b156111d557600084815260208190526040902060068101805460ff1916600117905580546121d090829061209b90612ab8565b80601f01602080910402602001604051908101604052809291908181526020018280546120c790612ab8565b80156121145780601f106120e957610100808354040283529160200191612114565b820191906000526020600020905b8154815290600101906020018083116120f757829003601f168201915b505050505082600101805461212890612ab8565b80601f016020809104026020016040519081016040528092919081815260200182805461215490612ab8565b80156121a15780601f10612176576101008083540402835291602001916121a1565b820191906000526020600020905b81548152906001019060200180831161218457829003601f168201915b50505060028601546003870154600488015460058901546001600160a01b0393841695509190921692506123d1565b156122055760405185907f33e13ecb54c3076d8e8bb8c2881800a4d972b792045ffae98fdf46df365fed7590600090a2612246565b60405185907f526441bb6c1aba3c9a4a6ca1d6545da9c2333c8c48343ef398eb858d72b7923690600090a26006810180546000919060ff19166001836111ce565b5050505050565b600060075490506040518060e00160405280888152602001878152602001866001600160a01b03168152602001856001600160a01b03168152602001848152602001838152602001600060028111156122b657634e487b7160e01b600052602160045260246000fd5b90526000828152602081815260409091208251805191926122dc928492909101906124db565b5060208281015180516122f592600185019201906124db565b506040820151600280830180546001600160a01b039384166001600160a01b0319918216179091556060850151600385018054919094169116179091556080830151600483015560a0830151600583015560c08301516006830180549192909160ff191690600190849081111561237c57634e487b7160e01b600052602160045260246000fd5b02179055509050506001600760008282546123979190612a89565b909155505060405181907fc0ba8fe4b176c1714197d43b9cc6bcf797a4a7461c5fe8d0ef6e184ae7601e5190600090a29695505050505050565b60085460405163d2e8183960e01b815260009182916001600160a01b039091169063d2e8183990612410908b908b908b908b908b908b9060040161297c565b602060405180830381600087803b15801561242a57600080fd5b505af115801561243e573d6000803e3d6000fd5b505050506040513d601f19601f820116820180604052508101906124629190612679565b98975050505050505050565b6040518060e00160405280606081526020016060815260200160006001600160a01b0316815260200160006001600160a01b031681526020016000815260200160008152602001600060028111156124d657634e487b7160e01b600052602160045260246000fd5b905290565b8280546124e790612ab8565b90600052602060002090601f016020900481019282612509576000855561254f565b82601f1061252257805160ff191683800117855561254f565b8280016001018555821561254f579182015b8281111561254f578251825591602001919060010190612534565b5061255b92915061255f565b5090565b5b8082111561255b5760008155600101612560565b80356001600160a01b038116811461258b57600080fd5b919050565b80356003811061258b57600080fd5b600082601f8301126125af578081fd5b813567ffffffffffffffff808211156125ca576125ca612b1e565b604051601f8301601f19908116603f011681019082821181831017156125f2576125f2612b1e565b8160405283815286602085880101111561260a578485fd5b8360208701602083013792830160200193909352509392505050565b600060208284031215612637578081fd5b61264082612574565b9392505050565b60008060408385031215612659578081fd5b61266283612574565b915061267060208401612574565b90509250929050565b60006020828403121561268a578081fd5b81518015158114612640578182fd5b6000602082840312156126aa578081fd5b61264082612590565b600080600080600060a086880312156126ca578081fd5b853567ffffffffffffffff808211156126e1578283fd5b6126ed89838a0161259f565b96506020880135915080821115612702578283fd5b5061270f8882890161259f565b94505061271e60408701612574565b94979396509394606081013594506080013592915050565b600060208284031215612747578081fd5b5035919050565b60008060408385031215612760578182fd5b8235915061267060208401612574565b600080600060608486031215612784578283fd5b833592506020840135915061279b60408501612590565b90509250925092565b600381106127c257634e487b7160e01b600052602160045260246000fd5b9052565b60008151808452815b818110156127eb576020818501810151868301820152016127cf565b818111156127fc5782602083870101525b50601f01601f19169290920160200192915050565b6020808252825182820181905260009190848201906040850190845b818110156128525783516001600160a01b03168352928401929184019160010161282d565b50909695505050505050565b60006020808301818452808551808352604092508286019150828160051b870101848801865b8381101561292257603f19898403018552815160e081518186526128aa828701826127c6565b915050888201518582038a8701526128c282826127c6565b838a01516001600160a01b03908116888c0152606080860151909116908801526080808501519088015260a0808501519088015260c09384015193909250905061290e818701846127a4565b509588019593505090860190600101612884565b509098975050505050505050565b6020808252825182820181905260009190848201906040850190845b818110156128525783518352928401929184019160010161294c565b6020810161297682846127a4565b92915050565b60c08152600061298f60c08301896127c6565b82810360208401526129a181896127c6565b6001600160a01b03978816604085015295909616606083015250608081019290925260a0909101529392505050565b60e0815260006129e360e083018a6127c6565b82810360208401526129f5818a6127c6565b6001600160a01b038981166040860152881660608501526080840187905260a084018690529150612462905060c08301846127a4565b6020808252601690820152754f6e6c79206f776e65722063616e20636f6e6669726d60501b604082015260600190565b602080825260149082015273151e1b88185b1c9958591e48115e1958dd5d195960621b604082015260600190565b60008219821115612a9c57612a9c612b08565b500190565b600082821015612ab357612ab3612b08565b500390565b600181811c90821680612acc57607f821691505b60208210811415610fc757634e487b7160e01b600052602260045260246000fd5b6000600019821415612b0157612b01612b08565b5060010190565b634e487b7160e01b600052601160045260246000fd5b634e487b7160e01b600052604160045260246000fdfea2646970667358221220933a40deec4094db7cc5274740c104266ed77ef938957b6d6c191a90823e0e7a64736f6c63430008040033",
  "devdoc": {
    "author": "Stefan George - <stefan.george@consensys.net>",
    "kind": "dev",
    "methods": {
      "addOwner(address)": {
        "details": "Allows to add a new owner. Transaction has to be sent by wallet.",
        "params": {
          "owner": "Address of new owner."
        }
      },
      "changeRequirement(uint256)": {
        "details": "Allows to change the number of required decisions. Transaction has to be sent by wallet.",
        "params": {
          "_required": "Number of required decisions."
        }
      },
      "confirmTransaction(uint256)": {
        "details": "Allows an owner to confirm a transaction.",
        "params": {
          "transactionId": "Transaction ID."
        }
      },
      "constructor": {
        "details": "Contract constructor sets initial owners and required number of decisions.",
        "params": {
          "_owners": "List of initial owners.",
          "_required": "Number of required decisions."
        }
      },
      "executeRejection(uint256)": {
        "details": "Allows anyone to execute a confirmed transaction.",
        "params": {
          "transactionId": "Transaction ID."
        }
      },
      "executeTransaction(uint256)": {
        "details": "Allows anyone to execute a confirmed transaction.",
        "params": {
          "transactionId": "Transaction ID."
        }
      },
      "getOwners()": {
        "details": "Returns list of owners.",
        "returns": {
          "_0": "List of owner addresses."
        }
      },
      "rejectTransaction(uint256)": {
        "details": "Allows an owner to reject a transaction.",
        "params": {
          "transactionId": "Transaction ID."
        }
      },
      "removeOwner(address)": {
        "details": "Allows to remove an owner. Transaction has to be sent by wallet.",
        "params": {
          "owner": "Address of owner."
        }
      },
      "removeSupplier(address)": {
        "details": "Allows to remove an supplier. Transaction has to be sent by wallet.",
        "params": {
          "supplier": "Address of supplier."
        }
      },
      "replaceOwner(address,address)": {
        "details": "Allows to replace an owner with a new owner. Transaction has to be sent by wallet.",
        "params": {
          "newOwner": "Address of new owner.",
          "owner": "Address of owner to be replaced."
        }
      },
      "revokeDecision(uint256)": {
        "details": "Allows an owner to revoke a confirmation for a transaction.",
        "params": {
          "transactionId": "Transaction ID."
        }
      }
    },
    "title": "Multisignature wallet - Allows multiple parties to agree on transactions before execution.",
    "version": 1
  },
  "userdoc": {
    "kind": "user",
    "methods": {},
    "version": 1
  },
  "storageLayout": {
    "storage": [
      {
        "astId": 7518,
        "contract": "contracts/MultiSigWallet.sol:MultiSigWallet",
        "label": "transactions",
        "offset": 0,
        "slot": "0",
        "type": "t_mapping(t_uint256,t_struct(Transaction)7566_storage)"
      },
      {
        "astId": 7525,
        "contract": "contracts/MultiSigWallet.sol:MultiSigWallet",
        "label": "decisions",
        "offset": 0,
        "slot": "1",
        "type": "t_mapping(t_uint256,t_mapping(t_address,t_enum(decision)7550))"
      },
      {
        "astId": 7529,
        "contract": "contracts/MultiSigWallet.sol:MultiSigWallet",
        "label": "isOwner",
        "offset": 0,
        "slot": "2",
        "type": "t_mapping(t_address,t_bool)"
      },
      {
        "astId": 7533,
        "contract": "contracts/MultiSigWallet.sol:MultiSigWallet",
        "label": "isSupplier",
        "offset": 0,
        "slot": "3",
        "type": "t_mapping(t_address,t_bool)"
      },
      {
        "astId": 7536,
        "contract": "contracts/MultiSigWallet.sol:MultiSigWallet",
        "label": "owners",
        "offset": 0,
        "slot": "4",
        "type": "t_array(t_address)dyn_storage"
      },
      {
        "astId": 7539,
        "contract": "contracts/MultiSigWallet.sol:MultiSigWallet",
        "label": "suppliers",
        "offset": 0,
        "slot": "5",
        "type": "t_array(t_address)dyn_storage"
      },
      {
        "astId": 7541,
        "contract": "contracts/MultiSigWallet.sol:MultiSigWallet",
        "label": "required",
        "offset": 0,
        "slot": "6",
        "type": "t_uint256"
      },
      {
        "astId": 7543,
        "contract": "contracts/MultiSigWallet.sol:MultiSigWallet",
        "label": "transactionCount",
        "offset": 0,
        "slot": "7",
        "type": "t_uint256"
      },
      {
        "astId": 7546,
        "contract": "contracts/MultiSigWallet.sol:MultiSigWallet",
        "label": "cashflowTokens",
        "offset": 0,
        "slot": "8",
        "type": "t_contract(CashflowTokens)5145"
      }
    ],
    "types": {
      "t_address": {
        "encoding": "inplace",
        "label": "address",
        "numberOfBytes": "20"
      },
      "t_array(t_address)dyn_storage": {
        "base": "t_address",
        "encoding": "dynamic_array",
        "label": "address[]",
        "numberOfBytes": "32"
      },
      "t_bool": {
        "encoding": "inplace",
        "label": "bool",
        "numberOfBytes": "1"
      },
      "t_contract(CashflowTokens)5145": {
        "encoding": "inplace",
        "label": "contract CashflowTokens",
        "numberOfBytes": "20"
      },
      "t_enum(decision)7550": {
        "encoding": "inplace",
        "label": "enum MultiSigWallet.decision",
        "numberOfBytes": "1"
      },
      "t_mapping(t_address,t_bool)": {
        "encoding": "mapping",
        "key": "t_address",
        "label": "mapping(address => bool)",
        "numberOfBytes": "32",
        "value": "t_bool"
      },
      "t_mapping(t_address,t_enum(decision)7550)": {
        "encoding": "mapping",
        "key": "t_address",
        "label": "mapping(address => enum MultiSigWallet.decision)",
        "numberOfBytes": "32",
        "value": "t_enum(decision)7550"
      },
      "t_mapping(t_uint256,t_mapping(t_address,t_enum(decision)7550))": {
        "encoding": "mapping",
        "key": "t_uint256",
        "label": "mapping(uint256 => mapping(address => enum MultiSigWallet.decision))",
        "numberOfBytes": "32",
        "value": "t_mapping(t_address,t_enum(decision)7550)"
      },
      "t_mapping(t_uint256,t_struct(Transaction)7566_storage)": {
        "encoding": "mapping",
        "key": "t_uint256",
        "label": "mapping(uint256 => struct MultiSigWallet.Transaction)",
        "numberOfBytes": "32",
        "value": "t_struct(Transaction)7566_storage"
      },
      "t_string_storage": {
        "encoding": "bytes",
        "label": "string",
        "numberOfBytes": "32"
      },
      "t_struct(Transaction)7566_storage": {
        "encoding": "inplace",
        "label": "struct MultiSigWallet.Transaction",
        "members": [
          {
            "astId": 7552,
            "contract": "contracts/MultiSigWallet.sol:MultiSigWallet",
            "label": "invoiceHash",
            "offset": 0,
            "slot": "0",
            "type": "t_string_storage"
          },
          {
            "astId": 7554,
            "contract": "contracts/MultiSigWallet.sol:MultiSigWallet",
            "label": "legalContractHash",
            "offset": 0,
            "slot": "1",
            "type": "t_string_storage"
          },
          {
            "astId": 7556,
            "contract": "contracts/MultiSigWallet.sol:MultiSigWallet",
            "label": "anchor",
            "offset": 0,
            "slot": "2",
            "type": "t_address"
          },
          {
            "astId": 7558,
            "contract": "contracts/MultiSigWallet.sol:MultiSigWallet",
            "label": "supplier",
            "offset": 0,
            "slot": "3",
            "type": "t_address"
          },
          {
            "astId": 7560,
            "contract": "contracts/MultiSigWallet.sol:MultiSigWallet",
            "label": "invoiceAmount",
            "offset": 0,
            "slot": "4",
            "type": "t_uint256"
          },
          {
            "astId": 7562,
            "contract": "contracts/MultiSigWallet.sol:MultiSigWallet",
            "label": "paymentDate",
            "offset": 0,
            "slot": "5",
            "type": "t_uint256"
          },
          {
            "astId": 7565,
            "contract": "contracts/MultiSigWallet.sol:MultiSigWallet",
            "label": "status",
            "offset": 0,
            "slot": "6",
            "type": "t_enum(decision)7550"
          }
        ],
        "numberOfBytes": "224"
      },
      "t_uint256": {
        "encoding": "inplace",
        "label": "uint256",
        "numberOfBytes": "32"
      }
    }
  }
}