{
  "address": "0x429EFa36ff406aA9DCAE57A1488dE2097ABb1556",
  "abi": [
    {
      "inputs": [],
      "stateMutability": "nonpayable",
      "type": "constructor"
    },
    {
      "inputs": [],
      "name": "ethPrice",
      "outputs": [
        {
          "internalType": "int256",
          "name": "",
          "type": "int256"
        }
      ],
      "stateMutability": "view",
      "type": "function"
    },
    {
      "inputs": [],
      "name": "maticPrice",
      "outputs": [
        {
          "internalType": "int256",
          "name": "",
          "type": "int256"
        }
      ],
      "stateMutability": "view",
      "type": "function"
    }
  ],
  "transactionHash": "0x8bf068b3a2ee197385712619c53c0876ea86d3e49b51050de9e183ee6048d37e",
  "args": [],
  "solcInputHash": "c498c08febadcd0092b38e2ffc3cbab0",
  "bytecode": "0x608060405234801561001057600080fd5b50600080546001600160a01b0319908116730715a7794a1dc8e42615f059dd6e406a6594651a179091556001805490911673d0d5e3db44de05e9f294bb0a3beeaf030de24ada1790556101da806100686000396000f3fe608060405234801561001057600080fd5b50600436106100365760003560e01c806345ea451a1461003b578063ff186b2e14610055575b600080fd5b61004361005d565b60405190815260200160405180910390f35b6100436100f1565b600080600160009054906101000a90046001600160a01b03166001600160a01b031663feaf968c6040518163ffffffff1660e01b815260040160a06040518083038186803b1580156100ae57600080fd5b505afa1580156100c2573d6000803e3d6000fd5b505050506040513d601f19601f820116820180604052508101906100e69190610155565b509195945050505050565b6000805460408051633fabe5a360e21b8152905183926001600160a01b03169163feaf968c9160048083019260a0929190829003018186803b1580156100ae57600080fd5b805169ffffffffffffffffffff8116811461015057600080fd5b919050565b600080600080600060a0868803121561016c578081fd5b61017586610136565b945060208601519350604086015192506060860151915061019860808701610136565b9050929550929590935056fea2646970667358221220d0b3d4b2c18088879290606d24c93a65ec1847f43876bf3e4185f90ba3a9b04e64736f6c63430008040033",
  "devdoc": {
    "kind": "dev",
    "methods": {},
    "version": 1
  },
  "userdoc": {
    "kind": "user",
    "methods": {
      "constructor": {
        "notice": "Network: Mumbai Aggregator: ETH/USD Decimals: 8 Address: 0x0715A7794a1dc8e42615F059dD6e406A6594651A"
      },
      "ethPrice()": {
        "notice": "Returns the latest price"
      }
    },
    "version": 1
  },
  "storageLayout": {
    "storage": [
      {
        "astId": 51,
        "contract": "contracts/price-feed/ETHUSDPrice.sol:PriceConsumerV3",
        "label": "priceFeedEth",
        "offset": 0,
        "slot": "0",
        "type": "t_contract(AggregatorV3Interface)45"
      },
      {
        "astId": 54,
        "contract": "contracts/price-feed/ETHUSDPrice.sol:PriceConsumerV3",
        "label": "priceFeedMatic",
        "offset": 0,
        "slot": "1",
        "type": "t_contract(AggregatorV3Interface)45"
      }
    ],
    "types": {
      "t_contract(AggregatorV3Interface)45": {
        "encoding": "inplace",
        "label": "contract AggregatorV3Interface",
        "numberOfBytes": "20"
      }
    }
  }
}