{
  "address": "0x6736422d082B6f12de3cCBE0D749CA2FF0Ea3964",
  "abi": [
    {
      "inputs": [],
      "stateMutability": "nonpayable",
      "type": "constructor"
    },
    {
      "inputs": [],
      "name": "ethPrice",
      "outputs": [
        {
          "internalType": "int256",
          "name": "",
          "type": "int256"
        }
      ],
      "stateMutability": "view",
      "type": "function"
    }
  ],
  "transactionHash": "0xb2d55973dadbc78390420649a44732dfae152840f7b0006d2dd82105448c4bca",
  "args": [],
  "solcInputHash": "6fabbe30bb26f5bee2da3f6d9daecff3",
  "bytecode": "0x608060405234801561001057600080fd5b50600080546001600160a01b031916730715a7794a1dc8e42615f059dd6e406a6594651a1790556101cd806100466000396000f3fe608060405234801561001057600080fd5b506004361061002b5760003560e01c8063ff186b2e14610030575b600080fd5b61003861004a565b60405190815260200160405180910390f35b6000805460408051633fabe5a360e21b8152905183926001600160a01b03169163feaf968c9160048083019260a0929190829003018186803b15801561008f57600080fd5b505afa1580156100a3573d6000803e3d6000fd5b505050506040513d601f19601f820116820180604052508101906100c79190610102565b5050509150506305f5e100816100dd9190610151565b91505090565b805169ffffffffffffffffffff811681146100fd57600080fd5b919050565b600080600080600060a08688031215610119578081fd5b610122866100e3565b9450602086015193506040860151925060608601519150610145608087016100e3565b90509295509295909350565b60008261016c57634e487b7160e01b81526012600452602481fd5b600160ff1b82146000198414161561019257634e487b7160e01b81526011600452602481fd5b50059056fea26469706673582212206f2aa3cd67a5f21f4e12937a9832fef27c02605d371f5c4d393752ea4dbd173f64736f6c63430008040033",
  "devdoc": {
    "kind": "dev",
    "methods": {},
    "version": 1
  },
  "userdoc": {
    "kind": "user",
    "methods": {
      "constructor": {
        "notice": "Network: Mumbai Aggregator: ETH/USD Decimals: 8 Address: 0x0715A7794a1dc8e42615F059dD6e406A6594651A"
      },
      "ethPrice()": {
        "notice": "Returns the latest price"
      }
    },
    "version": 1
  },
  "storageLayout": {
    "storage": [
      {
        "astId": 51,
        "contract": "contracts/price-feed/ETHUSDPrice.sol:PriceConsumerV3",
        "label": "priceFeed",
        "offset": 0,
        "slot": "0",
        "type": "t_contract(AggregatorV3Interface)45"
      }
    ],
    "types": {
      "t_contract(AggregatorV3Interface)45": {
        "encoding": "inplace",
        "label": "contract AggregatorV3Interface",
        "numberOfBytes": "20"
      }
    }
  }
}