{
  "address": "0x8484C6b4dEa25cc60c5d8bB0477af74Ba9C7eb64",
  "abi": [
    {
      "inputs": [],
      "stateMutability": "nonpayable",
      "type": "constructor"
    },
    {
      "stateMutability": "payable",
      "type": "fallback"
    },
    {
      "inputs": [
        {
          "internalType": "address",
          "name": "account",
          "type": "address"
        },
        {
          "internalType": "uint256",
          "name": "amount",
          "type": "uint256"
        }
      ],
      "name": "burn",
      "outputs": [],
      "stateMutability": "nonpayable",
      "type": "function"
    },
    {
      "inputs": [
        {
          "internalType": "string",
          "name": "_name",
          "type": "string"
        },
        {
          "internalType": "string",
          "name": "_symbol",
          "type": "string"
        },
        {
          "internalType": "uint256",
          "name": "initialSupply",
          "type": "uint256"
        }
      ],
      "name": "initialize",
      "outputs": [],
      "stateMutability": "nonpayable",
      "type": "function"
    },
    {
      "inputs": [
        {
          "internalType": "address",
          "name": "initialAddress",
          "type": "address"
        }
      ],
      "name": "initializeProxy",
      "outputs": [],
      "stateMutability": "nonpayable",
      "type": "function"
    },
    {
      "inputs": [
        {
          "internalType": "address",
          "name": "account",
          "type": "address"
        },
        {
          "internalType": "uint256",
          "name": "amount",
          "type": "uint256"
        }
      ],
      "name": "mint",
      "outputs": [],
      "stateMutability": "nonpayable",
      "type": "function"
    },
    {
      "inputs": [],
      "name": "owner",
      "outputs": [
        {
          "internalType": "address",
          "name": "",
          "type": "address"
        }
      ],
      "stateMutability": "view",
      "type": "function"
    },
    {
      "inputs": [
        {
          "internalType": "address",
          "name": "lpdf",
          "type": "address"
        }
      ],
      "name": "setLendingPoolDF",
      "outputs": [],
      "stateMutability": "nonpayable",
      "type": "function"
    },
    {
      "stateMutability": "payable",
      "type": "receive"
    }
  ],
  "transactionHash": "0x585cfcfc87e986ba9492b9f8a9e03c58fd2959eaaf1001a390ba25f770f9a997",
  "args": [],
  "solcInputHash": "56e65aeb26df081ffb690a7149abf769",
  "bytecode": "0x608060405234801561001057600080fd5b50602080546001600160a01b031916331790556108c4806100326000396000f3fe6080604052600436106100595760003560e01c806340c10f19146100705780634a0687ef1461009057806365232b6b146100b05780638da5cb5b146100d05780639dc29fac1461010c578063b119490e1461012c57610068565b366100685761006661014c565b005b61006661014c565b34801561007c57600080fd5b5061006661008b3660046106b3565b61015e565b34801561009c57600080fd5b506100666100ab366004610692565b610259565b3480156100bc57600080fd5b506100666100cb366004610692565b61035a565b3480156100dc57600080fd5b506020546100f0906001600160a01b031681565b6040516001600160a01b03909116815260200160405180910390f35b34801561011857600080fd5b506100666101273660046106b3565b6103e4565b34801561013857600080fd5b506100666101473660046106dc565b61045b565b61015c6101576105dc565b61060b565b565b602054600160a01b900460ff166101905760405162461bcd60e51b81526004016101879061082e565b60405180910390fd5b6020546001600160a01b03163314806101b357506021546001600160a01b031633145b6101cf5760405162461bcd60e51b815260040161018790610857565b3063c68d4283838360005b6040519080825280601f01601f191660200182016040528015610204576020820181803683370190505b506040518463ffffffff1660e01b815260040161022393929190610776565b600060405180830381600087803b15801561023d57600080fd5b505af1158015610251573d6000803e3d6000fd5b505050505050565b6001600160a01b0381166102af5760405162461bcd60e51b815260206004820152601760248201527f5555505350726f78793a207a65726f20616464726573730000000000000000006044820152606401610187565b60006102d97f360894a13ba1a3210667c828492db98dca3e2076cc3735a920a3ca505d382bbc5490565b6001600160a01b03161461032f5760405162461bcd60e51b815260206004820152601e60248201527f5555505350726f78793a20616c726561647920696e697469616c697a656400006044820152606401610187565b610357817f360894a13ba1a3210667c828492db98dca3e2076cc3735a920a3ca505d382bbc55565b50565b602054600160a01b900460ff166103835760405162461bcd60e51b81526004016101879061082e565b6020546001600160a01b03163314806103a657506021546001600160a01b031633145b6103c25760405162461bcd60e51b815260040161018790610857565b602180546001600160a01b0319166001600160a01b0392909216919091179055565b602054600160a01b900460ff1661040d5760405162461bcd60e51b81526004016101879061082e565b6020546001600160a01b031633148061043057506021546001600160a01b031633145b61044c5760405162461bcd60e51b815260040161018790610857565b30639d876741838360006101da565b602054600160a01b900460ff16156104ab5760405162461bcd60e51b8152602060048201526013602482015272105b1c9958591e48125b9a5d1a585b1a5e9959606a1b6044820152606401610187565b6020546001600160a01b031633146104f25760405162461bcd60e51b815260206004820152600a60248201526927b7363c9027bbb732b960b11b6044820152606401610187565b6040516285fc1360e71b815230906342fe098090610520906000906012908a908a908a908a906004016107e0565b600060405180830381600087803b15801561053a57600080fd5b505af115801561054e573d6000803e3d6000fd5b5050505060008111156105c2576040805160008152602081019182905263c68d428360e01b909152309063c68d42839061058f903390859060248101610776565b600060405180830381600087803b1580156105a957600080fd5b505af11580156105bd573d6000803e3d6000fd5b505050505b50506020805460ff60a01b1916600160a01b179055505050565b60006106067f360894a13ba1a3210667c828492db98dca3e2076cc3735a920a3ca505d382bbc5490565b905090565b3660008037600080366000845af43d6000803e80801561062a573d6000f35b3d6000fd5b80356001600160a01b038116811461064657600080fd5b919050565b60008083601f84011261065c578182fd5b50813567ffffffffffffffff811115610673578182fd5b60208301915083602082850101111561068b57600080fd5b9250929050565b6000602082840312156106a3578081fd5b6106ac8261062f565b9392505050565b600080604083850312156106c5578081fd5b6106ce8361062f565b946020939093013593505050565b6000806000806000606086880312156106f3578081fd5b853567ffffffffffffffff8082111561070a578283fd5b61071689838a0161064b565b9097509550602088013591508082111561072e578283fd5b5061073b8882890161064b565b96999598509660400135949350505050565b81835281816020850137506000828201602090810191909152601f909101601f19169091010190565b60018060a01b0384168152600060208481840152606060408401528351806060850152825b818110156107b75785810183015185820160800152820161079b565b818111156107c85783608083870101525b50601f01601f19169290920160800195945050505050565b6001600160a01b038716815260ff8616602082015260806040820181905260009061080e908301868861074d565b828103606084015261082181858761074d565b9998505050505050505050565b6020808252600f908201526e139bdd08125b9a5d1a585b1a5e9959608a1b604082015260600190565b60208082526018908201527f4f6e6c79204c656e64696e67506f6f6c44462f4f776e6572000000000000000060408201526060019056fea2646970667358221220a7265d3cd3da2f6899cf3cb72921b439ae4b07419ee4ee0dac88c2a6132b222464736f6c63430008040033",
  "devdoc": {
    "kind": "dev",
    "methods": {
      "initializeProxy(address)": {
        "details": "Proxy initialization function.      This should only be called once and it is permission-less.",
        "params": {
          "initialAddress": "Initial logic contract code address to be used."
        }
      }
    },
    "version": 1
  },
  "userdoc": {
    "kind": "user",
    "methods": {},
    "version": 1
  },
  "storageLayout": {
    "storage": [
      {
        "astId": 3002,
        "contract": "contracts/LendingPool/SuperDepositToken.sol:SuperDepositToken",
        "label": "_storagePaddings",
        "offset": 0,
        "slot": "0",
        "type": "t_array(t_uint256)32_storage"
      },
      {
        "astId": 7257,
        "contract": "contracts/LendingPool/SuperDepositToken.sol:SuperDepositToken",
        "label": "owner",
        "offset": 0,
        "slot": "32",
        "type": "t_address"
      },
      {
        "astId": 7268,
        "contract": "contracts/LendingPool/SuperDepositToken.sol:SuperDepositToken",
        "label": "isInitialized",
        "offset": 20,
        "slot": "32",
        "type": "t_bool"
      },
      {
        "astId": 7270,
        "contract": "contracts/LendingPool/SuperDepositToken.sol:SuperDepositToken",
        "label": "lendingPoolDF",
        "offset": 0,
        "slot": "33",
        "type": "t_address"
      }
    ],
    "types": {
      "t_address": {
        "encoding": "inplace",
        "label": "address",
        "numberOfBytes": "20"
      },
      "t_array(t_uint256)32_storage": {
        "base": "t_uint256",
        "encoding": "inplace",
        "label": "uint256[32]",
        "numberOfBytes": "1024"
      },
      "t_bool": {
        "encoding": "inplace",
        "label": "bool",
        "numberOfBytes": "1"
      },
      "t_uint256": {
        "encoding": "inplace",
        "label": "uint256",
        "numberOfBytes": "32"
      }
    }
  }
}